:020000040800F2
:10000000A06B002055020008EB680008235600088A
:10001000E9680008DD1E0008B58100080000000046
:100020000000000000000000000000009D0100082A
:100030004121000800000000F10100080D7A0008CD
:100040006F0200086F0200086F0200086F020008CC
:100050006F0200086F0200086F0200086F020008BC
:100060006F0200086F0200086F0200086F020008AC
:100070006F0200086F0200086F0200086F0200089C
:100080006F0200086F020008C11600086F02000826
:100090006F0200086F0200086F0200086F0200087C
:1000A0006F0200086F0200086F0200086F0200086C
:1000B0006F0200086F0200086F0200086F0200085C
:1000C0006F0200086F0200086F0200086F0200084C
:1000D0006F020008818000088D8000086F02000810
:1000E0006F0200086F0200086F0200086F0200082C
:1000F0006F0200086F0200086F0200086F0200081C
:100100006F0200086F0200086F0200086F0200080B
:10011000957D0008A17D00086F020008AD7A0008F7
:100120006F0200086F0200086F0200086F020008EB
:100130006F0200086F0200086F0200086F020008DB
:100140006F0200086F0200086F0200086F020008CB
:100150006F0200086F0200086F0200089980000813
:100160006F0200086F0200086F0200086F020008AB
:100170006F0200086F0200086F0200080000000014
:100180006F0200086F020008DFF80CD001F016F8CB
:1001900000480047F5CA0008A06B00202A4B1968E8
:1001A0000868B0E8F04F80F30988BFF36F8F4FF015
:1001B000000080F3118870470000000006480068C6
:1001C000006880F3088862B661B6BFF34F8FBFF353
:1001D0006F8F00DF00BF00BF08ED00E0DFF80C000C
:1001E000016841F470010160704700BF88ED00E0D4
:1001F000EFF30980BFF36F8F134B1A681EF0100FD7
:1002000008BF20ED108A20E9F04F106008B44FF0CD
:10021000500080F31188BFF34F8FBFF36F8F0EF044
:10022000DBFC4FF0000080F3118808BC19680868F7
:10023000B0E8F04F1EF0100F08BFB0EC108A80F34A
:100240000988BFF36F8F704738020020EFF30580F5
:10025000704700000648804706480047FEE7FEE773
:10026000FEE7FEE7FEE7FEE7FEE7FEE7FEE7FEE766
:100270009D7A0008890100082DE9F05F05460020FD
:1002800092469B4688460646814640241BE0284607
:1002900041464746224600F051FD53465A46C01A91
:1002A000914110D311461846224600F038FD2D1A10
:1002B00067EB01084F4622460120002100F02FFD88
:1002C00017EB00094E41201EA4F10104DFDC484673
:1002D00031462A464346BDE8F09F2DE9F04100240F
:1002E000061B254671F1000605DA01240027D0EB34
:1002F000070067EB0101161E73F1000605DA0027FF
:10030000D2EB0702012567EB0303FFF7B5FF864633
:100310000E4617469C46AC4204D00025D0EB050E95
:1003200065EB010624B10020D2EB000760EB030C63
:10033000704631463A466346BDE8F08140EA010323
:100340009B0703D009E008C9121F08C0042AFAD28B
:1003500003E011F8013B00F8013B521EF9D270474F
:10036000D2B201E000F8012B491EFBD270470022F7
:10037000F6E710B513460A4604461946FFF7F0FFA4
:10038000204610BD30B505462A460B4612F8010B33
:1003900013F8014B08B1A042F8D01CB1002802D0DC
:1003A0006D1CF1E7284630BD10B5044604E00B781B
:1003B00000F8013B03B1491C521EF8D2204610BD83
:1003C000CAB2401E10F8011F8A4202D00029F9D19A
:1003D00000207047421C10F8011B0029FBD1801A35
:1003E000704710B5002200E0521C835C8C5CA34275
:1003F00001D1002BF8D1D8B2E1B2401A10BD30B50E
:1004000004460020034600E05B1C934203D2E05CFC
:10041000CD5C401BF8D030BD034611F8012B00F82D
:10042000012B002AF9D11846704730B50546002047
:10043000034600E05B1C934205D2EC5CC85C201ACA
:1004400001D1002CF6D130BD0FB400B58DB010A98C
:1004500009900B9000914FF0FF300A9000200C9013
:1004600005480690054807906A4609A80F9900F0CC
:100470009BFC0DB05DF814FBC50D0008E30D0008F2
:100480002DE9FF5F1D464FF0FF3BD5E90146914640
:100490005F464FF00008A9697F1C01988847296AC8
:1004A000824688470028F6D1BAF1FF3F0CD024F4E9
:1004B000C064002E19DD600614D5BAF12B0F09D0E7
:1004C000BAF12D0F0ED103E0584604B0BDE8F09FFD
:1004D00044F48064A9697F1C01988847761E82468F
:1004E000002E02DDBAF1300F03D0B9F1000F26D093
:1004F00032E0A969761E44F400747F1C0198884795
:100500008246002E05DDBAF1780F06D0BAF1580FF9
:1005100003D0B9F1000F10D01EE0B9F1000F02D0E6
:10052000B9F1100F18D1A969761E24F400747F1C4C
:10053000019888478246102002E0082000E00A2047
:10054000814609E008FB0908A969761E44F4007495
:100550007F1C019888478246002E05DD494650469B
:1005600000F00EFC0028EDDAE96901988847A00543
:1005700002D46FF00100A8E7E00725D1600613D58B
:10058000600502D5C8F1000000E0404629680A1D58
:100590002A600968220501D5087015E0220701D5F7
:1005A000088011E008600FE02868011D29600068DC
:1005B000210502D580F8008006E0210702D5A0F8C9
:1005C000008001E0C0F8008038467EE72DE9FF5F3B
:1005D000D2E901A74FF00008916999461446DDF869
:1005E00038B0464601988847054659EA0B0005D0C1
:1005F00009E0A169761C019888470546216A2846CA
:1006000088470028F5D1681C03D05FEACA7005D07E
:1006100015E04FF0FF3004B0BDE8F09F2068011DE9
:100620002160D0F800800AE05FEACA7001D108F8C2
:10063000015BA169761C7F1E019888470546002F43
:100640001ADD681C18D0B9F1000F0DD0E81705EBC2
:10065000D060421120F01F0059F822102A1A012000
:1006600090400142E0D107E0BBF1000FDCD1216AEC
:10067000284688470028D7D0E16901988847BBF110
:10068000000F07D1002E05DD5FEACA7002D10021FC
:1006900088F80010A068B84203DDBBF1000F03D05A
:1006A00017B16FF00100B6E73046B4E72DE9FF4F10
:1006B000087883B09946FF2805D0491C2D2804D01E
:1006C0000024002008E000200BE00124F9E700EB03
:1006D000800003EB4000491C0B78FF2BF7D104B1DD
:1006E000404200230293147819461D462D2C01D058
:1006F0002B2C04D1521C2D2C13D000240294AA467A
:100700001478FF2C0FD00A25A3FB057801FB058187
:100710004FF0000C03FB0C11521CE3194AEB0101D2
:10072000EEE70124EAE7814453EA010002D019F51B
:10073000C87F06DA03980021C0E9001107B0BDE8C0
:10074000F08F0025AE4E2F46DFF8B882184600F035
:10075000F9FCCDE90001B9F1000002DAC9F10004A9
:1007600000E004460023A74A1AEB030B42EB045AAD
:1007700012E0E00707D02A4633463846414600F0EB
:10078000F9F9074688462A4633461046194600F0CE
:10079000F1F905460E466410002CEAD1DDE90001AE
:1007A000B9F1000F5A46534606DA00F045FC3A46C6
:1007B000434600F041FC05E000F0DCF93A464346D0
:1007C00000F0D8F9029A0AB181F00041039AC2E917
:1007D0000001B3E72DE9FF4F1F468DB0D7E9014671
:1007E0004FF0FF382E2045464FF000090B90B969B5
:1007F0006D1C0E988847396A824688470028F6D1D2
:10080000BAF1FF3F0AD024F4D064002E11DDBAF112
:100810002B0F08D0BAF12D0F0BD102E0404611B0DA
:100820008DE744F48064B9696D1C0E988847824650
:10083000761E6946600501D52D2000E02B208DF83D
:10084000000001F1010B0DF1200809E0B9696D1CF0
:100850000E98884782460F9844F40074761E05600F
:10086000002E02DDBAF1300FF0D00B998A453ED14F
:1008700044F0800406E00F99681CA9F1010944F4D2
:1008800000740860B9696D1C761E0E988847824610
:100890003028F0D02BE00B998A4505D1200603D4EF
:1008A00044F08004761E18E0504609F0DBFF08B3E0
:1008B0000DF11301761E44F400748B4508D2AAF1A1
:1008C00030000BF8010B200607D5A9F1010003E069
:1008D000200602D409F101008146A00502D50F9936
:1008E000681C0860B9696D1C0E9888478246002E06
:1008F000D1DC53E0002E51DDBAF1650F02D0BAF120
:10090000450F4BD1A00549D5B9696D1C24F440743D
:10091000761E0E9888478246002E0CDD2B2804D0C8
:10092000BAF12D0F07D144F48074B9696D1C0E988B
:1009300088478246761EE00501D52D2100E02B2157
:1009400008F8011BCDF82C8021E00DF12901761E5D
:1009500044F4007488450CD2AAF1300010F0FF0076
:1009600088F8000002D10B99884509D908F10108DF
:1009700006E0E00501D5244801E042F20F7081460F
:10098000B9696D1C0E98884782460F980560002E45
:1009900004DD504609F066FF0028D6D1F9690E98AB
:1009A0008847FF208BF8000088F8000000200690A0
:1009B00007904B466A4608A906A8FFF777FEA005F0
:1009C00002D46FF001002AE714F0240F0AD0E007E8
:1009D00014D1DDE906123868031D3B600068C0E9E8
:1009E00000120BE0DDE9060100F067F90146E007BF
:1009F00004D13868021D3A600068016028460EE79D
:100A0000000014400000F03FF1D8FFFF70B506462B
:100A100007F09EFF046805460A220021304600F0D8
:100A20003FFA2C6070BD2DE9FE4F804681EA03003D
:100A3000C00F0C46009021F0004123F00045B8EBB8
:100A40000200A94105D24046214690461C460B466D
:100A5000024623F00040104347D0270DC7F30A0099
:100A6000C3F30A510290401A019040286BDAC3F395
:100A7000130040F4801B0098924620B10023D2EB73
:100A8000030A63EB0B0B01985946C0F14002504634
:100A900000F045F906460D4650465946019A00F0C9
:100AA0005DF910EB08006141002487EA115284EAE5
:100AB000E7731A4340D0009A62B3019A012A4FEAC1
:100AC000075215DC001B61EB02014FF0004202EA05
:100AD0000752CDE90042001C41F5801132462B46F9
:100AE00000F05CFA03B0BDE8F08F40462146F9E71C
:100AF000001B61EB0201001C41F5801300185B41F3
:100B00002018A2F5001747EB030140EAD570B6198B
:100B10006D4111E06D084FEA360645EAC0754FEAAF
:100B20000752001B61EB0201001C41F580114908CE
:100B30004FEA30000019514132462B4603B0BDE860
:100B4000F04F00F01CBA0098012240000023D0EBC7
:100B5000020263EBE073009821464FEAE074B8EBC1
:100B6000000061EB0401E9E783F000435BE781F0FB
:100B7000004158E72DE9FE4F81EA030404F00044E8
:100B800021F0004100944FF0000B23F0004350EAA5
:100B900001045ED052EA03045BD0C3F30A54C1F3EC
:100BA0000A552C44A4F2F3340194A0FB0254C1F37F
:100BB000130141F48011C3F3130343F4801301FBC9
:100BC000024400FB034E840A970A44EA815447EA30
:100BD0008357A4FB076802958D0A05FB07854FEA3A
:100BE000932C04FB0C542705029D4FEA065847EA54
:100BF0001637B5EB08056EEB070C870E920E47EA29
:100C0000811742EA8312A7FB0201B6EB0B0164EBEA
:100C100000042B0D43EA0C335E1844EB1C50DA46FB
:100C20005146E7FB0201C5F313044FEA0B3343EAD5
:100C300014534FEA0432019C43EA0603A4F10C0466
:100C40000294009CCDE900B400F0A8F903B0BDE81F
:100C5000F08F00200146F9E70EB5C10F80EAE07081
:100C60000844CA07002140F233438DE80E000A46CB
:100C70000B4600F093F903B000BD0EB540F23341CE
:100C800002910021CDE900110A460B4600F086F9D9
:100C900003B000BD00F0004230F000400AD0C10DAA
:100CA00001F56071C0F3160042EA0151C208400725
:100CB0001143704700200146704701F0004330B4F3
:100CC00021F0004150EA010206D00A0DA2F560723F
:100CD000C1F31301002A02DC30BC00207047440F2E
:100CE00044EAC104C100E01830BC00EBC25000F07F
:100CF0000FB930B50B46014600202022012409E03F
:100D000021FA02F59D4205D303FA02F5491B04FAC4
:100D100002F52844151EA2F10102F1DC30BD202AA3
:100D200004DB203A00FA02F1002070479140C2F142
:100D3000200320FA03F3194390407047202A04DB74
:100D4000203A21FA02F00021704721FA02F3D04044
:100D5000C2F120029140084319467047202A06DB61
:100D6000CB17203A41FA02F043EAE07306E041FA79
:100D700002F3D040C2F12002914008431946704767
:100D80003A2800D2303820F02002412A01D3A2F1C3
:100D90003700884201D34FF0FF307047026811449A
:100DA0001378016018467047D160044951610449C5
:100DB000116200211161114600F020BA9D0D00085A
:100DC000E9110008426842B1016811F8013B23B102
:100DD000521EC0E90012184670470121C160881EEA
:100DE000704742685AB1C368016843B983688B424F
:100DF00005D0491E521CC0E90012002070474FF078
:100E0000FF3070470FB4002300B589B00CA90091E2
:100E10000B996FF00042CB601E4B06931E4B07935D
:100E20000423CDE901321D4A089202466B46002098
:100E3000FFF7D0FC09B05DF814FB70B586B006462C
:100E40004FF0FF300091CDE90101002015460C461E
:100E500004903246694604A8FFF7D4FF024604987E
:100E6000211825B108B1084600E020462860049802
:100E700000280DD0002A02DD0098884208D0081B07
:100E80000094CDE901043246694604A8FFF7BAFF91
:100E900006B070BDC50D0008E30D0008E91100089B
:100EA0002DE9F04791460F4680460446002614F887
:100EB000015B2DB100F094F90068405DC007F6D1E8
:100EC0002B2D02D02D2D18D0641E4A4639462046BF
:100ED00000F02AFB27B13968A14201D1C7F8008090
:100EE00071054FF002040BD54042002803DD07F0E6
:100EF0002FFD0460A007BDE8F08746F48066E4E7B4
:100F00000028F8DA07F024FD04606FF00040F2E7F3
:100F10000029A8BF7047401C490008BF20F001000D
:100F2000704710B4B0FA80FC00FA0CF050EA0104EB
:100F300004BF10BC704749B1CCF1200421FA04F47D
:100F400011FA0CF118BF012121430843A3EB0C0156
:100F5000CB1D4FEA00614FEA102042BF002010BCB9
:100F6000704700EBC35010440029A4BF10BC704769
:100F7000401C490008BF20F0010010BC704710B5AC
:100F8000141E73F1000408DA401C41F100019218AC
:100F90005B411A4301D120F0010010BD2DE9F04D55
:100FA00092469B4611B1B1FA81F202E0B0FA80F2AA
:100FB00020329046FFF7B3FE04460F4640EA0A008F
:100FC00041EA0B0153465A46084313D0114653EAEF
:100FD000010019D0C8F140025046FFF7AFFE0546A8
:100FE0000E46504659464246FFF799FE084305D043
:100FF000012004E020463946BDE8F08D002005437D
:1010000046EAE0762C4337430A986305E40AA0EBEE
:1010100008000022FD0A44EA47540A3002D50020A5
:101020000146E9E7010510196941DDE908450019A4
:101030006941BDE8F04DA2E72DE9F04D81EA0304D6
:1010400004F0004B21F0004514464FF0000A23F055
:10105000004150EA050220D054EA01021DD0C5F338
:101060000A570246C5F31303C1F31300C1F30A562E
:1010700040F4801543F48013A7EB0608101BD646F6
:1010800008F2FD3873EB050002D308F1010801E016
:1010900092185B41B8F1000F03DA00200146BDE869
:1010A000F08D00204FF48011064684460EE0171B99
:1010B00073EB050705D3121B63EB050306434CEAEC
:1010C000010C49084FEA300092185B4150EA0107D1
:1010D000EDD152EA030012D082EA040083EA05014E
:1010E000084305D0101BAB4106D20122002306E0C5
:1010F00000224FF0004302E06FF0010253101AEBA0
:1011000006004CEB085110EB0A0041EB0B01BDE867
:10111000F04DFFF734BF70B521F0004303430CD00E
:10112000C1F30A550024D5EB040564EB0403D6177C
:10113000AD1AB34102DB0020014670BD201841EB1F
:10114000025170BD0EB540F2334202920022CDE949
:1011500000221346FFF722FF03B000BDC1F30A527D
:10116000C1F3130140F2FF3341F480119A4202DAD5
:1011700000200146704740F233439A42A2F23342C4
:1011800002DC5242FFF7DABDFFF7C9BD30B5041EDD
:1011900071F1000404DB4FF00044404264EB0101B4
:1011A000141E73F1000405DB1C464FF0004352424D
:1011B00063EB0403994208BF904230BD064C074DD3
:1011C00006E0E06840F0010394E807009847103417
:1011D000AC42F6D3FEF7DCFF2C1C01084C1C0108C6
:1011E00000487047741B010810B50446FFF7F8FF6C
:1011F0000068005D00F0010010BD00002DE9F34F14
:101200008BB04FF0000801F10C000C464FF0010BC1
:1012100046460DF1080A0190626901210198904744
:10122000051E2DD0252D2CD0216A8847C0B16269BA
:10123000012101989047216A88470028F7D1411E73
:1012400062690198904700E0761CA1690B98884775
:10125000216A88470028F7D1E1690B988847DBE7C6
:10126000A1690B9888470746A84201D1761CD3E7AD
:10127000E1690B9888477F1C02D1B8F1000F6FD04D
:1012800046E1002762693D463946019890472A2881
:1012900004D162690121019890470125DFF8849209
:1012A0006269012101989047A0F130010A290AD210
:1012B0004F45E5DC07EB870100EB4107303FDFD40A
:1012C00045F01005ECE7E90601D46FF000476C2803
:1012D0000AD04C2814D0682815D06A280DD074285C
:1012E0001CD07A281AD01DE062690121019890472C
:1012F0006C2802D045F0040514E045F002050DE02D
:1013000045F020050AE062690121019890476828AC
:1013100002D045F0080505E045F400656269012149
:1013200001989047C4E9015765283DD019DC582839
:101330007AD00CDC452837D004DC252826D041287B
:1013400031D131E046282FD047282CD12CE05B2822
:1013500077D0612828D063287CD0642823D15AE034
:10136000D0E06F2848D008DC66281DD067281BD045
:10137000692821D06E2816D127E0702845D073281F
:1013800068D0752847D078280DD14DE0A1690B9819
:101390008847054625283FF469AFE1690B988847DF
:1013A0006D1C3FF46AAFB3E023466A466FF001005C
:1013B0000B99FFF70FFA9EE045F040006060A80728
:1013C00023464FF0000236D43EE0E8077FF447AFF3
:1013D0002068011D21600068290501D506701BE702
:1013E000290701D5068017E7A90703D5F117C0E93A
:1013F000006111E706600FE745F040006060A80754
:1014000023464FF0080216D41EE040F60E0125EAEE
:101410000100606016E045F040006060A8072346C8
:101420004FF00A0207D40FE045F040006060A807C3
:1014300008D5234610226FF001000B99AFF300800E
:1014400059E007E0234610226FF001000B99FFF7E7
:1014500017F850E04FF000094F464B46632802D082
:101460005B2806D040E0E80601D40120A0600127F7
:101470003AE062690121019890475E2805D14FF05A
:1014800001096269494601989047216939B90021EB
:101490000A46534643F82120491C0829FADBB0B319
:1014A000216969B9C11700EBD16253110AEB8301BD
:1014B00022F01F02821A01200B68904003430B6048
:1014C00062690121019890475D28E8D1B9F1000FC8
:1014D00009D00020514651F82020D24341F8202065
:1014E000401C0828F7DB02AB224600976FF0010092
:1014F0000B99FFF76BF800280CDA401C08D1BBF100
:10150000000F05D04FF0FF300DB0BDE8F08FFFE7C2
:101510004046F9E7E90701D108F1010806444FF018
:10152000000B79E6CCCCCC0C2DE9F05F824600783C
:10153000002715468B460AF10104B946302801D030
:101540009DB113E014F8010B0127782803D0582827
:1015500001D045B10AE00DB1102D07D100271025AB
:1015600014F8010B02E0082500E00A250026B04629
:101570000EE005FB080005FB06F1012701EB104614
:101580001FFA80F8B6F5803F00D3B94614F8010B76
:101590002946FFF7F5FB0028EBDABBF1000F05D079
:1015A0000FB1641E00E05446CBF80040B9F1000FC3
:1015B00006D007F0CDF902210160C81EBDE8F09FFA
:1015C00048EA0640FAE72DE9F04D00231A461B1AB7
:1015D0008A4103DB00200146BDE8F08DC1F30A52C9
:1015E000C1F3130141F480154FF0000BD10702D174
:1015F00000186D41521E0027044640F2FF11384684
:1016000001EB620A3E468046024600204FF48011FC
:10161000FFF794FBC2197141BB1846EB0100B4EB14
:10162000030C75EB000C04D3E41A65EB00051746B8
:101630000E46241908F101006D4180463428E3DD8F
:10164000F91946EB0600091BA84103D24FF0FF32FF
:10165000134601E0002213461BEB070046EB0A513C
:10166000BDE8F04DFFF78BBC70B58C1810F8015B2E
:1016700015F0070301D110F8013B2A1106D110F82B
:10168000012B03E010F8016B01F8016B5B1EF9D12F
:101690002B0705D40023521E0DD401F8013BFAE7B5
:1016A00010F8013BCB1A921C03E013F8015B01F820
:1016B000015B521EF9D5A142D8D3002070BD0000B5
:1016C000014801F05EBF0000C8020020464910B585
:1016D0004A6822F440324A604A6843681A434A60C2
:1016E00001684A6822F480724A6001684A680369A6
:1016F00042EA03224A6001684A6822F040724A6066
:1017000001684A6883681A434A6001688A6822F45B
:1017100000628A6001688A68C3681A438A60816AC5
:101720006FF07062D14201688A6822F070628A604C
:1017300001688A680CD0836A1A438A6001688A68E3
:1017400022F040528A6001688A68C36A1A4301E045
:1017500022F040528A6001688A6822F002028A60A0
:1017600001688A68037E42EA43028A6090F820108A
:10177000002901684A680FD042F400624A6001689B
:101780004A6822F460424A6001684A68174C436A1A
:1017900004EB43331A4301E022F400624A6001681B
:1017A000CA6A22F47002CA620168CA6A838B104C4A
:1017B00004EB03531A43CA6201688A6822F4007278
:1017C0008A6001688A6890F8303042EA43228A6071
:1017D00001688A6822F480628A6001688A684069C8
:1017E00042EA8020886010BD0023014000E0FFFF36
:1017F0000000F0FF2DE9FC4137489FED381A9FEDBE
:10180000380AD0ED000A10EE810AF3EE0B0A80EEE2
:10181000201ABDEEC10A10EE106A642E00DD6426A7
:101820003048DFED310A90ED000A20EE200ABDEECF
:10183000C00A10EE105A002D00DA6D422B4890EDD0
:10184000000A20EE200ABDEEC00A10EE104A002C5D
:1018500000DA64422649487998B10020254F487142
:10186000397801290FD050B32348B0F90430B0F9CA
:101870000220B0F9001002B020A0BDE8F04106F04F
:10188000EFBF0120EAE7214890ED000A2048BDEEB5
:10189000C00A10EE103A90ED000A1E48BDEEC00AD4
:1018A00010EE102A90ED000A1BA0BDEEC00A10EE4B
:1018B000101A06F0D5FF00203870BDE8FC811A48E8
:1018C0000068FFF7E7F9CDE90001E2B2E9B233467B
:1018D00016A006F0C5FFF0E70800002000007A44DB
:1018E00000401C460C0B00200000C842200B0020CA
:1018F0002C0000206F000020BE0000207B422564E9
:101900003A25643A25647D2400000000440000204C
:10191000400000203C0000207B4325643A25643AC7
:1019200025647D2400000000B00000207B41256478
:101930003A25643A25643A25647D24002DE9F04F68
:101940002DED088BCBB08648874990ED009A8548ED
:10195000D1ED000A90ED000A70EE609A90ED010A58
:10196000D1ED010A30EE608A29EEA90A08EE080AD4
:1019700008F0E2FCF0EE408AF0EE690AB0EE480AA8
:1019800007F0FEFBDFED79AA20EE2A0A9FED78BA78
:10199000784980EE0BAA886F401C88673221B0FB23
:1019A000F1F201FB120000282AD119EE100AFFF70C
:1019B00071F906460F461AEE100AFFF76BF9044656
:1019C0000D4618EE900AFFF765F982468B4618EE31
:1019D000100AFFF75FF98046894619EE900AFFF773
:1019E00059F90A468DE8050F06AB63A283E8F000BB
:1019F0004FF480710AA806F043FF0AA80CF058FDC6
:101A00005C4C6C4D94ED040AF4EEC08AF1EE10FAD1
:101A100025D201206070D5ED000AB0EE490A06F02B
:101A2000D1FEA16F3220B1FBF0F200FB1210B0EE3C
:101A3000408A68B918EE100AFFF72CF9CDE90001C9
:101A40005DA2802102A806F01BFF02A80CF030FD69
:101A5000B0EE481A9FED610AF0EE400A79E00020EE
:101A600060703AEE490ADFED5E0A5E4902E000BFAF
:101A700030EE600A10EE100A8842F9DC5A4900BFC5
:101A800010EE100A884202D930EE200AF8E7D4EDB1
:101A9000020A20EEA88AD4ED030AB4EEE08AF1EE41
:101AA00010FA01DDB0EE608A18EE900AB0F17C5FAA
:101AB00005DAF0EE000A68EEA00A20EE888A60EEF1
:101AC0000B0A80EEAA0AF0EE408A07F09DFC60EE59
:101AD000089AB0EE680A08F067FB20EE08AAD5ED78
:101AE000000AB0EE490A06F06DFEA16F3220B1FB8C
:101AF000F0F200FB1210F0EE408A20BB18EE100A44
:101B0000FFF7C8F806460F4618EE900AFFF7C2F82E
:101B100004460D461AEE100AFFF7BCF880468946C7
:101B200019EE900AFFF7B6F80A468DE8050304ABF4
:101B30002EA283E8F0004FF4807108A806F0A0FE02
:101B400008A80CF0B5FCB0EE681AF0EE4A0AB0EE48
:101B5000690A4BB0BDEC088BBDE8F04F00F02ABB22
:101B6000B0000020BC020020B0020020000034437E
:101B7000DB0F4940180100205BB5BCBABD5D20CE2B
:101B8000F3B2EE28252E33662C252E33662920BE8F
:101B9000E0C0EB3A252E336620C4BFB1EABDC73A98
:101BA000252E316620B5B1C7B0BDC73A252E3166A6
:101BB0000D0A0000000000205BB5BCBABD5D20B579
:101BC000BDB4EFC4BFB1EAA3ACBABDCFF2BFD8D6A3
:101BD000C63A252E33660D0A000000000000000002
:101BE0000000B44300003443000034C35BB5BCBA0A
:101BF000BD5D20BFD8D6C6CAE4B3F620583A252E1C
:101C0000336620593A252E3366205A3A252E3366FC
:101C100020BBF9B4A1CBD9B6C83A252E33660D0A3C
:101C200000000000CEB00AF083FC8D4E8D4C49F6CA
:101C3000404B00254C900A214CA80CF0FFFD606839
:101C4000584501DA401C606001F020FB3078002824
:101C50007BD001F015F8E06BC822401CB0FBF2F11C
:101C6000E06302FB110000286DD13078012802D01A
:101C7000022823D064E07C480068FFF70BF8DFF807
:101C8000EC9107468846D9F80400FFF703F8CDE940
:101C90000001D9F80000FEF7FDFFCDE904788A467F
:101CA000DDE900128146CDE90212CDE9009A70A269
:101CB0004FF480710CA806F0E3FD41E06A4800682B
:101CC000FEF7E8FFDFF8A49107468846D9F804003C
:101CD000FEF7E0FFCDE90601D9F80000FEF7DAFFD4
:101CE000CDE904016F480068FEF7D4FFDFF8B89132
:101CF000CDE90201D9F80400FEF7CCFFCDE90001DF
:101D0000D9F80000FEF7C6FFCDE90A788A46DDE97A
:101D10000612CDE90812DDE90412CDE90612DDE96B
:101D20000212CDE90412DDE900128146CDE902126A
:101D3000CDE9009A5D4A4FF480710CA806F0A0FD31
:101D40000CA80CF0B5FB19E0FFE7207828B1584843
:101D5000007810B1FFF7F2FD10E05648007828B186
:101D600001F016FA52480570657007E09FED520ABF
:101D7000B0EE401AF0EE400A00F01CFA4F4801683D
:101D80004F48814204DD4F48D0F80C02012805D0AD
:101D900000231A461946184600955BE0DFF82891A3
:101DA0004B46D9ED020A99ED000A03F011FE00EE50
:101DB000100ADFF81881B8EEC00A83ED010A434625
:101DC000D8ED020A98ED000A03F040FE00EE100A7A
:101DD0003F4FB8EEC00A83ED010AD7ED020A97ED36
:101DE000000A03F071FE00EE100A3A4BB8EEC00A8A
:101DF00087ED010AD3ED020A93ED000A03F0A2FE7B
:101E000000EE100A40F2DC50B8EEC00A83ED010A81
:101E100004F07EF830480078F0B9009593ED010A9F
:101E2000B1EE400ABDEEC00A10EE103A97ED010A7D
:101E3000BDEEC00A10EE102A98ED010AB1EE400A7C
:101E4000BDEEC00A10EE101A99ED010ABDEEC00AEF
:101E500010EE100A05F0A4FCA06B401CA063EAE69B
:101E60000402002018010020B0000020B002002071
:101E70005BB1E0B6D35D20C1ECBABDD5DFC4A3CA67
:101E8000BD202D20CEBBD6C328252E32662C252E74
:101E900032662920BABDCFF2252E3166A1E30D0AA4
:101EA0000000000000000020BC020020781B010898
:101EB0000001002048000020000000000800002071
:101EC00000002041008041420C0B0020200B00202C
:101ED000340B0020480B002039000020FEE70000F2
:101EE0003648B5EE003A3C4AD0ED001A344890ED41
:101EF000001A344871EEC13AD0ED000A324873EE50
:101F0000A03A90ED000A314873EEC03A90ED002AF5
:101F10002F48D0ED002A2F4832EE222AF6EE002A72
:101F200022EE222A71EE812A12EE101A72EEA02AF7
:101F3000914272EE802A62EE832A23EE833AC0ED4C
:101F4000052A80ED063A10DDF1EE611A31EEC11A74
:101F500071EE200A30EE800AF1EE000A62EE200AED
:101F600080EE201A80ED071A03E09FED1C0A80ED39
:101F7000070A9FED1B0AD0ED0B0A60EE801ADFED19
:101F8000190A42EEA01AC0ED0B1A90ED0C1A21EEC0
:101F9000001A03EE201A80ED0C1A90ED0D2A22EEA5
:101FA000000A90ED072A02EE200A80ED0D0AC0ED2E
:101FB000051A80ED061A80ED070A70470C0B002009
:101FC000200B0020340B0020480B00206400002070
:101FD00060000020180100200AD7233C0000000008
:101FE0003333333F9A99993E2DE9F04190B001F097
:101FF0000FFE0026DFF868800746354605EB4500F2
:1020000000EBC50108EB810494F82800B0B1606AC8
:1020100047F23051381A884210D9234611A2402184
:10202000684606F02DFC68460CF042FA002084F861
:10203000280013484179491E4171761C6D1C0A2DF8
:10204000DCDB002E08DD33460EA24021684606F098
:1020500017FC68460CF02CFA10B0BDE8F0810000C7
:10206000901200205BB9E3B2A55D20D2C6B3FDC0DB
:10207000EBCFDFD0A1B3B53A2025730D0A000000E5
:10208000940100205BB9E3B2A55D20D2C6B3FDC1C7
:10209000CB20256420C1BEC0EBCFDFD0A1B3B50DEE
:1020A0000A00000038B5002000906B46012275211F
:1020B00068200AF099FC9DF8000068280CD0BFF356
:1020C0004F8F1C4801681C4A01F4E0611143016014
:1020D000BFF34F8F00BFFDE70AF02CFE002828D188
:1020E00078200BF0B3FA78200AF050FDC8200BF0EE
:1020F0006DFA09F08BFE114804460AF0D7FC05463C
:10210000E01C0AF0D3FC45EAC005A01D0AF0CEFC95
:1021100045EA801080B20AF02BF840F2731009F003
:102120004DFDC82009F08CFF0CF04AF801200BF09F
:1021300073F938BD0CED00E00400FA05CA00002078
:102140007047000070B5194C04F12000E278011DC1
:102150002AB980ED000AC1ED000A0122E270A278DE
:10216000002500EB820301EB820283ED000AC2ED41
:10217000000AA57090ED000AD1ED000A20EE000AD9
:1021800000EEA00A08F0D8F810EE100A08498842BC
:1021900001DD657007E06078401CC0B26070042803
:1021A00001D3002070BD012070BD0000040200209A
:1021B000CDCC4C3D00B5B0EE0C3A05F08BFB2A4877
:1021C0002C4B2D49D0ED002A90ED012AD0ED020ACA
:1021D000264832EE220A32EEC22AD0ED001A2448F6
:1021E000B0EE401AF0EE422AD0ED003A2348244ADD
:1021F00071EEA31A00EEE10A40EEE12A00EEA11A08
:1022000000EEA12AF8EE0C1A83ED020AC1ED022AB3
:1022100080ED021A82ED022AB0EE431AF0EE610A56
:102220000CF02EF983ED020A91ED020AB0EE431A8A
:10223000F0EE610A0CF024F981ED020A90ED020A39
:10224000B0EE431AF0EE610A0CF01AF980ED020AC2
:1022500092ED020AB0EE431AF0EE610A0CF010F9AA
:1022600082ED020A00BD0000000B00206400002087
:10227000600000200C0B0020200B0020340B0020FD
:10228000480B002030B585B01221684600F064F894
:1022900028B115A11648FEF7BFF816A020E0144D8E
:1022A00000241C35684655F82410FEF79AF850B102
:1022B000641C042CF6DB15A20A210D4803AB06F0C2
:1022C000DFFA14A006E0631C19A20A21084806F0F0
:1022D000D7FA19A00CF0ECF805480CF0E9F81DA0AD
:1022E0000CF0E6F805B030BD43415230000000006C
:1022F000AC0100205B49445D20CAB9D3C3C4ACC85B
:10230000CF49443A20434152300D0A0043415225FF
:10231000730000005B49445D20CAB9D3C34D4143FB
:10232000B5D8D6B7C9FAB3C949443A20000000006D
:1023300043415225640000005B49445D20B8F9BE6A
:10234000DD4D4143B5D8D6B7B7D6C5E449443A20A8
:10235000000000000D0A000070B504460D461BA0E9
:102360000CF0A6F81F4800264FF4806106801E4836
:10237000FDF7FDFF40F6B8321CA11DA000F0A8FA41
:1023800008B11FA01EE024A11748FDF7FBFFC0B154
:1023900000220C306D1E01E0A154521CAA4204D24E
:1023A000815C222901D00029F6D1A6541DA00CF091
:1023B0007FF820460CF07CF809A00CF079F800209A
:1023C00070BD1EA00CF074F8012070BD5B4D414340
:1023D0005D20BBF1C8A14D4143B5D8D6B72E2E2EF6
:1023E0000D0A00000C010020E80C00204F4B0000FB
:1023F00041542B4349505354414D41433F00000049
:102400005B4D41435D20BBF1C8A14D4143B5D8D6DA
:10241000B7CAA7B0DC0D0A002B4349505354414DB5
:1024200041433A005B4D41435D20BBF1C8A1B5BDBE
:102430004D4143B5D8D6B73A200000005B4D41432B
:102440005D20BDE2CEF64D4143B5D8D6B7CAA7B0A0
:10245000DC0D0A0010B5A2B026A00CF029F803F09C
:10246000AFFC4FF47A7001F0B7FA40F6B834224668
:1024700026A127A000F02CFA08B126A025E0FFF73E
:1024800001FF03F09DFB224620A129A000F020FAC5
:1024900008B12AA019E02DA000902FA331A280211D
:1024A00001A806F0EDF944F6206218A101A800F099
:1024B0000FFA08B130A008E000F01AF908B132A014
:1024C00003E000F089F828B133A00BF0F1FF012000
:1024D00022B010BD35A00BF0EBFF3E480BF0E8FF3B
:1024E00009A00BF0E5FF01F093FB3A491839886029
:1024F0000020EDE7BFAACABCB3F5CABCBBAF4553C9
:1025000050383236362E2E2E0D0A00004F4B00006A
:102510004154000045535038323636CEDECFECD32E
:10252000A6A3ACC7EBBCECB2E9C1ACBDD30D0A00AD
:1025300041542B43574D4F44453D3100C9E8D6C364
:10254000C4A3CABDCAA7B0DC0D0A000031323334BF
:1025500035363738000000005869616F6D695F31AA
:102560003031300041542B43574A41503D222573AE
:10257000222C222573220000C1ACBDD357694669C5
:10258000CAA7B0DC0D0A0000554450B3F5CABCBB65
:10259000AFCAA7B0DC0D0A00B9E3B2A5B3F5CABC57
:1025A000BBAFCAA7B0DC0D0A00000000455350388D
:1025B00032363620554450BACDB9E3B2A5B3F5CA88
:1025C000BCBBAFB3C9B9A6A3A1D0A1B3B549443A26
:1025D00020000000AC01002000B5A3B016A00BF055
:1025E00067FF41F288321BA11BA000F071F908B10E
:1025F0001CA013E041F691700090019020A324A24A
:10260000802102A806F03CF942F2107211A102A842
:1026100000F05EF938B1032805D026A00BF048FF82
:10262000012023B000BD2A490120487029A00BF0E9
:102630003FFF0020F5E700005BB9E3B2A55D20B3E2
:10264000F5CABCBBAFB9E3B2A5C1ACBDD32E2E2E2B
:102650000D0A00004F4B000041542B4349504D558B
:10266000583D31005BB9E3B2A55D20C9E8D6C3B6D9
:10267000E0C1ACBDD3C4A3CABDCAA7B0DC0D0A007B
:102680003139322E3136382E33312E323535000085
:1026900041542B43495053544152543D312C2255FF
:1026A0004450222C222573222C25642C25642C30A6
:1026B000000000005BB9E3B2A55D20B9E3B2A5C19B
:1026C000ACBDD3B3F5CABCBBAFCAA7B0DC0D0A0022
:1026D000940100205BB9E3B2A55D20B9E3B2A5C1C6
:1026E000ACBDD3B3F5CABCBBAFB3C9B9A60D0A0024
:1026F00000B5A3B017A00BF0DBFE41F288321CA19D
:102700001CA000F0E5F808B11DA015E043F2390166
:1027100041F69070CDE9000120A324A2802102A8F7
:1027200006F0AEF842F2107211A102A800F0D0F843
:1027300038B1032805D026A00BF0BAFE012023B043
:1027400000BD2A490120087029A00BF0B1FE00202D
:10275000F5E700005B5544505D20B3F5CABCBBAF44
:10276000554450C1ACBDD32E2E2E0D0A00000000E2
:102770004F4B000041542B4349504D55583D3100BB
:102780005B5544505D20C9E8D6C3B6E0C1ACBDD3AB
:10279000C4A3CABDCAA7B0DC0D0A00003139322E6D
:1027A0003136382E33312E343600000041542B435D
:1027B000495053544152543D302C22554450222C00
:1027C000222573222C25642C25642C300000000067
:1027D0005B5544505D20554450C1ACBDD3B3F5CAE0
:1027E000BCBBAFCAA7B0DC0D0A00000094010020FA
:1027F0005B5544505D20554450C1ACBDD3B3F5CAC0
:10280000BCBBAFB3C9B9A60D0A0000002DE9F84F53
:102810002A4E318800294FD02948002704464754C2
:10282000894620463D4633E02C21FDF7C9FD5FEA8D
:10283000000833D02C2108F10100FDF7C1FD5FEA4B
:10284000000A2BD03A210AF10100FDF7B9FD5FEA39
:10285000000B23D008F10100FEF7D8F800900AF130
:102860000100FEF7D3F88046401E0BF1010AB0F5D7
:10287000F97F0AD80AEB080104EB0900814204D869
:1028800041465046009A04F07FFA0AEB08006D1C9E
:102890000CA1FDF777FD08B10A2DC5DB378001F0EB
:1028A000B7F90A4D044642F210712869201A88428D
:1028B00002D9FFF799FB2C61BDE8F88F0C010020CD
:1028C000E80C00202B495044000000009401002037
:1028D0002DE9F04717468A46044601F099F9DFF8DA
:1028E000F48006460025A8F800504FF480613A486D
:1028F000FDF73DFD39480068406839A00BF0D8FD70
:1029000020460BF0D5FD3BA00BF0D2FD2046FDF795
:1029100061FD82B24FF47A794B4621462F4802F08E
:102920002FFE4B46022233A12C4802F029FE324CE6
:10293000DFF8A49034E000BFB8F8000000282CD0E5
:1029400009F800502DA12448FDF71CFD48B130A026
:102950000BF0AEFD01F05CF9A06025710320BDE82D
:10296000F08751461C48FDF70DFD40B12EA00BF03D
:102970009FFD01F04DF9A06025710020EFE731A126
:102980001548FDF7FFFC40B130A00BF091FD01F0C0
:102990003FF9A06025710120E1E7032001F01CF858
:1029A00001F036F9801BB842C6D32079401C207153
:1029B0002CA00BF07DFD08480BF07AFD0DA00BF06C
:1029C00077FD2079052803D92CA00BF071FD257126
:1029D0000220C4E70C010020E80C00207006002053
:1029E0005B455350383236365D20B7A2CBCD3A2006
:1029F000000000000D0A000094010020414C5245E7
:102A000041445920434F4E4E454354454400000035
:102A10005B455350383236365D20D2D1C1ACBDD380
:102A2000D7B4CCAC0D0A00005B4553503832363673
:102A30005D20CAD5B5BDD4A4C6DACFECD3A60D0AA5
:102A4000000000004552524F520000005B455350B9
:102A5000383236365D20B4EDCEF3CFECD3A60D0A76
:102A6000000000005B455350383236365D20B3AC71
:102A7000CAB1A3ACCAD5B5BD3A2000005B554152DE
:102A8000545D20C1ACD0F8B3ACCAB1A3ACBFC9C4CB
:102A9000DCD0E8D2AABCECB2E9D3B2BCFEC1ACBD7A
:102AA000D30D0A002DE9F04F2DED068B97B0B0EE57
:102AB000628AF0EE428AB0EE619AF0EE419AB0EE90
:102AC00060AAF0EE40AA13EE100AFEF7E3F80646FD
:102AD0000F4618EE100AFEF7DDF804460D4618EE14
:102AE000900AFEF7D7F8CDE9020119EE100AFEF7B9
:102AF000D1F8CDE9000119EE900AFEF7CBF8824635
:102B00008B461AEE100AFEF7C5F8804689461AEE83
:102B1000900AFEF7BFF80A460AA981E8F000DDE94D
:102B20000234CDE90834DDE90034CDE906348DE81E
:102B3000050F3A4B3AA28021434805F0A1FE4248D6
:102B4000FDF748FC024641A10EA805F0B1FEDFF8F2
:102B5000CC8006460020A8F11808414C88F80600F1
:102B600081464FF4806A4FF4FA7700BFA4F80090D2
:102B700051463C48FDF7FBFBB2B264230EA93A482C
:102B800002F0FEFC052000F027FF01F041F80546A9
:102B900009E0208820B135A13248FDF7F3FB38B9B0
:102BA000022000F019FF01F033F8401BB842F0D3C7
:102BB0002548FDF70FFC82B2642323492A4802F01E
:102BC000DFFC642302222AA1274802F0D9FC052059
:102BD00000F002FF2088A0B126A12248FDF7D2FB19
:102BE00078B101F015F8C8F80800A4F80090514633
:102BF0001C48FDF7BCFB002017B0BDEC068BBDE800
:102C0000F08F052000F0E8FE98F80610491C11F03E
:102C1000FF0188F80610A9D00120EDE7AC010020E3
:102C200025733A252E32662C252E32662C252E3120
:102C3000662C252E31662C252E33662C252E3366E8
:102C40002C252E33660000001012002041542B4327
:102C5000495053454E443D302C25640D0A00000078
:102C60000C010020E80C0020700600203E0000004F
:102C70000D0A000053454E44204F4B0072B6FEE74C
:102C80000F48007800281AD0012803D0022816D156
:102C900000F020B80B48007820B10B48007808B14C
:102CA000FEF74CBE0948007808B100F071BA9FEDFC
:102CB000080AB0EE401AF0EE400AFFF77BBA704700
:102CC000040200201801002000010020480000201C
:102CD000000000002DE9F04700242DED0E8B264664
:102CE000FD4F9FEDFE8AFE4D04EB440000EBC40057
:102CF00007EB800090F8281019B1FA49FDF771FB35
:102D000018B1641C0A2CEFDB0DE004EB440000EB6F
:102D1000C40017EB800406D000F07AFF616A401A05
:102D2000B0F5FA6F10D9B0EE481AF0EE480AB0EEDE
:102D3000480AFFF73FFA85ED0A8A85ED0B8A6E7027
:102D4000BDEC0E8BBDE8F087D4ED059AE648D4EDD6
:102D5000068AB0EEE90A10EE101A814201DAF0EEAE
:102D6000489AB0EEE80A10EE101A814201DAF0EE4D
:102D7000488AB0EE690AF0EE680AFFF7E3F994EDCD
:102D8000080A82469FEDD9DA20EE0D0ADFEDD8BAA7
:102D900080EE2BAAB0EE4A0A06F036FB94ED03BA99
:102DA000D5ED010AA84600EE80BAB0EE4A0A07F057
:102DB000FBF9D5ED020A00EEC0BAB0EE4A0A07F000
:102DC000F3F994ED049AD5ED010A00EE809AB0EE85
:102DD0004A0A06F019FBD5ED020A00EE809A94ED3E
:102DE000080AD5ED030A30EE20AADFEDC2AAC249D7
:102DF00002E000BF3AEE6AAA1AEE100A8842F9DA37
:102E000002E000BF3AEE2AAAB5EEC0AAF1EE10FA2F
:102E1000F8D3BA48DFF8E892BA4D90ED000ABA4EFE
:102E20007BEE40CA90ED010A39EE40BA99ED000AF6
:102E30003AEE400A02E000BF30EE6A0A10EE100AD5
:102E4000A842F9DC02E000BF30EE2A0A10EE100AB8
:102E5000B042F9D82CEEAC0A0BEE0B0A07F06CFA74
:102E6000B0EE409A0027F0EE00DA9FEDA8CABAF162
:102E7000000F7CD098ED070A60EE2D0AF4EEC90A27
:102E8000F1EE10FA23DCF0EE080A20EE200AB4EE90
:102E9000C90AF1EE10FA6ADDF0EE690AB0EE680ACE
:102EA00006F06EF9F0EE400AB0EE4B0AB0EE60EAC2
:102EB000F0EE6C0A06F064F93EEE400A9449B0EE7A
:102EC000C00A10EE100A0844924988424FD398ED88
:102ED0000C0AD9ED000A012769EE809A68EE808A13
:102EE00094ED080A4C4630EE600A01E030EE6A0AC2
:102EF00010EE100AA842F9DC02E000BF30EE2A0A08
:102F000010EE100AB042F9D860EE0D0AB0EEC00A19
:102F100010EE100A804980EEABEA88421BDDB0EE6D
:102F20004E0A06F071FA60EE29AAB0EE4E0A07F0DA
:102F30003BF948EEC0AAB0EE4E0A07F035F960EE54
:102F400029DAB0EE4E0A06F05FFA48EE80DAF0EECB
:102F50006A9AF0EE6D8A98ED070AB4EEC09AF1EE27
:102F600010FA51DDDFED6D0A19EE101A00E04CE0A9
:102F70004FF07E52914206DA39EE400A9FED681A10
:102F800020EE018A05E019EE101A914201DB9FED57
:102F9000658A98ED060A70EE88AADFED630A20EED6
:102FA000208AF0EE6C0AB0EE4B0A06F0E9F8D4ED98
:102FB000000A60EE8D0A80EEAB1A70EE41BAB0EEF8
:102FC0006B0A06F021FA2AEE899A60EE09AAB0EEA1
:102FD0006B0A07F0E9F820EE099A2AEEAA0A09EE30
:102FE000090A07F0A9F9B4EEC80AF1EE10FA07DDF4
:102FF0006AEE880AC0EE80AA69EE080A80EE809A1E
:1030000079EEAA9A78EE898A46E098ED0A0AD8ED18
:10301000040AD8ED051A3CEEC02A98ED0B0A20EE02
:10302000AC1A60EE8B0A3BEE400A19EE100A01EE74
:10303000821A41EE800AB7EE000AB0F17C5F05DA31
:1030400069EE2D1A9FED390A01EE8C0A61EE008AB5
:1030500020EE808AF0EE680AB0EE480A06F090F89A
:10306000D9ED000A60EE8D0A80EEAB1A30EE419A7F
:1030700028EEA80A08EE080A07F05EF9B0EE408ACA
:10308000B0EE490A06F0C0F960EE089AB0EE490ABF
:1030900007F08AF860EE088A29EEA90A08EEA80A65
:1030A00007F04AF9D8ED060A4446B4EEE00AF1EE1C
:1030B00010FA07DD29EEA01A68EEA00AC1EE009A08
:1030C000C0EE808A0FB99FED1ACAF0EE4A0A99ED58
:1030D000000A05F077FB2DE09012002000000000B0
:1030E00004020020481400200AD7233DDB0F49408A
:1030F000000034430000B4430000B443B002002099
:10310000B000002000003443000034C3CDCC4C3F5D
:1031100025F0B6C006DE660100002041CDCC4C3D56
:10312000CDCCCC3D9A99193ECDCCCC3ECDCC4C3EAD
:103130009A99993F20EE0C1AF0EE680AB0EE690AEF
:10314000FFF738F8C4ED0ACA84ED0BBAF8E50000C1
:103150001FB56946009007200290012001900B489E
:1031600000F062F9094800F05DFB1E21074800F0FD
:1031700003FB064800F000FA800503D5034800F081
:10318000FDF984B204B0204610BD0000C802002042
:1031900010B4334C31489FED341A94ED000A037893
:1031A00030483249324AF1EE400A092B24D2DFE896
:1031B00003F02305080B0E13181B1E0080ED000AF8
:1031C0000CE080ED000A04E080ED001A01E0C0EDA3
:1031D000000AC1ED000A1FE0C0ED000A81ED001AEF
:1031E0001AE0C0ED000A04E080ED001A01E080ED75
:1031F000000A81ED000A0FE01E4B80ED001A81ED00
:10320000001A1B78DFED1C0A012B18D01B4B1B7812
:10321000012B19D082ED001AD0ED000A9FED181A8B
:1032200080EE810A80ED000AD1ED001AC1EE810A1C
:10323000C1ED000A92ED001A10BCFEF7BBBF80EE94
:10324000201A9FED100A03E080EE201A9FED0E0A6F
:1032500021EE000A82ED000ADEE7000049000020AE
:103260003C0000204C000020000000005000002026
:10327000540000206C0000200000FA436D00002084
:1032800000007A44DB0FC93FDB0FC9BF10B5022035
:103290002DED048B04F09EF93B4C2060032004F0DC
:1032A00099F96060042004F095F9A060052004F00D
:1032B00091F93649E060097806291DD2DFE801F06E
:1032C0004E0355554E552168494200EE101A61686B
:1032D000F8EEC09A494200EE101A00BFA168B8EE9D
:1032E000C09A494200EE101AD0F10000F8EEC08AF0
:1032F00000EE100AB8EEC08A9FED250A254829EE97
:10330000801AD0ED000A244861EE201A90ED001AD0
:10331000224881EE812A69EE001A61EEA01A80ED42
:10332000002A81EE812A68EE801A1D4828EE000AE4
:1033300061EEA01A20EE200AC0EE010A80ED002AFC
:10334000184881EE812A80ED002A1748C0ED000A56
:10335000BDEC048BBDE81040FEF7C2BD94ED000A41
:10336000F8EEC09A94ED010AB8E794ED000A61689E
:10337000F8EEC09A494200EE101AB8EEC09A94EDE9
:10338000020AF8EEC08AB3E70012002039000020DC
:103390000000C8425C000020580000200C0B0020F8
:1033A000200B0020340B0020480B002010B51448DF
:1033B00000F038FA0A21124800F0DEF90820FFF781
:1033C000C7FEFDF75AFC9FED0F1B53EC112BFDF7C9
:1033D000D1FB9FED0E1B53EC112BFDF7CBFB9FEDAB
:1033E0000D1B53EC112BFDF7C5FB9FED0C1B53EC94
:1033F000112BFDF7BFFBFDF760FC00EE100A10BDBE
:10340000C80200206666666666660A400000000024
:10341000000026407B14AE47E17AF03F0000000038
:103420000000303F7047000078B50024009490F809
:103430003C20012A19D0012280F83C200A68072389
:103440000568092A13D9EE680A3A02EB4202934052
:103450009E43EE600B788A680A3B03EB43039A4075
:103460000368DD682A43DA6010E0022078BD2E6927
:1034700002EB420293409E432E610B788A6803EB75
:1034800043039A4003681D692A431A614A681F234F
:10349000072A13D205686E6B521E02EB820293401C
:1034A0009E436E630B790A885B1E92B203EB830323
:1034B0009A4003685D6B2A435A6327E005680D2A2A
:1034C00012D22E6BD21F02EB820293409E432E63D8
:1034D0000B790A88DB1F92B203EB83039A400368DF
:1034E0001D6B2A431A6311E0EE6A0D3A02EB820269
:1034F00093409E43EE620B790A880D3B92B203EB38
:1035000083039A400368DD6A2A43DA62164B056832
:10351000144A9D4206D10D68122D03D1556845F419
:103520008005556005689D4218D10B68102B01D0AD
:10353000112B13D1536843F4000353600968102919
:103540000CD10A490A4A0968B1FBF2F101EB810189
:10355000490000E0491E00910029FBD180F83C4061
:10356000002078BD00230140002001402000002001
:1035700040420F0070477047006C70470068C06C95
:10358000704770B5044600680668456816F0020F7B
:1035900005F020012AD049B3216CC90603D4216C5F
:1035A00041F400712164816811F0405F17D1217EE0
:1035B000A9B9C16A11F4700F02D0816849050ED40F
:1035C000416821F020014160206C20F4807020646B
:1035D000206CC00403D4206C40F00100206420461D
:1035E000FFF7C8FF21686FF01200086016F0040FA3
:1035F00005F0800132D089B3206CC00603D4206C62
:1036000040F4005020642068816811F4401F1ED1EE
:10361000816B11F4401F02D08168490517D44168BD
:10362000490514D4816811F0405F10D1217E71B931
:10363000416821F080014160206C20F480502064BA
:10364000206CC00503D4206C40F0010020642046AB
:10365000FFF7E8FE21686FF00C00086016F0010F1C
:1036600005F040010FD071B120680068C0070AD092
:10367000206C40F480302064204600F043F821683C
:103680006FF00100086016F0200F05F080610ED089
:1036900000290CD0606C40F00200606420686FF07C
:1036A000200505602046FFF766FF2068056070BDB5
:1036B00070B504004FF0000503D0206C002610B157
:1036C00007E0012070BD204600F01EF8666484F813
:1036D0003C60206CC00610D4206C20F4885040F070
:1036E000020020642046FDF7F1FF6664206C20F0A4
:1036F000020040F00100206400E0012584F83C60F5
:10370000284670BD7047000010B586B004461421ED
:103710006846FCF72CFE15492068884223D11448DE
:103720000021026842F480720260006800F4807038
:1037300005900F481438026842F0020202600068E7
:1037400000F00200059003200090CDE901016946D8
:10375000084800F053F900221146122000F0F2FA56
:10376000122000F0E1FA06B010BD00000020014078
:1037700044380240000402402DE9F041044600684C
:103780000D4681684FF0000749050BD58068C005DC
:1037900008D5206C40F02000206484F83C700120A3
:1037A000BDE8F08100F034FA064613E0681C11D041
:1037B00025B100F02DFA801BA8420BD920680068C3
:1037C000800707D4206C40F00400206484F83C702B
:1037D0000320E5E7206800688007E7D521686FF0DF
:1037E00012000860206C40F400702064206881683A
:1037F00011F0405F13D1217E89B9C16A11F4700FB5
:1038000002D0806840050AD4206C20F480702064C7
:10381000206CC00403D4206C40F001002064002020
:10382000BEE7000018B50021009190F83C20012A65
:1038300007D0012280F83C2002689368DB0702D0A1
:1038400011E0022018BD936843F0010393602E4AF3
:103850002E4B1268B2FBF3F202EB420200E0521E62
:103860000092002AFBD102689368DB0742D0036C08
:1038700040F20164A34343F48073036453685B051F
:1038800005D5036C23F4005343F480530364036CA5
:10389000DB0404D5436C23F00603436400E0416479
:1038A00080F83C101A496FF02203136049680068E1
:1038B000CA06184906D0884224D1816811F0405FB9
:1038C00013D01FE08842F8D0134A904203D1D1F8B8
:1038D0000423D206F1D0114A904213D1D1F8041337
:1038E00001F01F011029E8D30CE0816841F080410C
:1038F000816007E0016C41F010010164416C41F00E
:1039000001014164002018BD2000002040420F004A
:10391000002301400020014000210140002201401D
:103920002DE9F0410446876D00F072F9064694F8DF
:1039300035000025022806D08020606584F83450C8
:103940000120BDE8F0812068016821F016010160C6
:103950002068416921F080014161206C08B9A06CA8
:1039600020B12068016821F0080101602068016829
:1039700021F0010101600CE000F04AF9801B0528EC
:1039800007D920206065032084F8350084F834507E
:10399000D7E720680068C007EED194F85C103F209C
:1039A0008840B860012084F8350084F83450002045
:1039B000C7E790F83510022903D080214165012026
:1039C0007047052180F835100068016821F0010179
:1039D000016000207047000070B5044600F018F93F
:1039E0000546601C02D004480078044400F010F939
:1039F000401BA042FAD370BD140000202DE9F84FFF
:103A0000DFF8BCA10022012503264FF00F090AF1BF
:103A1000040BAAF1040E00BF0B6805FA02F4234060
:103A2000A34270D10F7907F00307012F01D0022FB5
:103A300016D187684FEA420806FA08FC27EA0C0705
:103A4000D1F80CC00CFA08FC4CEA070CC0F808C00E
:103A50004768A7430C79C4F3001494403C43446086
:103A60000C79E443A4070AD0C4684FEA420C06FA72
:103A70000CF7BC438F6807FA0CF72743C7600C7933
:103A800004F00304022C12D1D40800EB840CDCF8FF
:103A900020405707FF0E09FA07F824EA0804D1F876
:103AA000108008FA07F848EA0408CCF82080046877
:103AB0004FEA420C06FA0CF7BC430F7907F00307F4
:103AC00007FA0CF7274307604C6814F4403F70D0A6
:103AD0003C4C276847F480472760246822F003079E
:103AE00004F480440094384C07EB040CDCF80848DC
:103AF00097074FEA177809FA08F7BC43334FB842E3
:103B000002D1002724E054E0314FB84201D101270F
:103B10001EE0304FB84201D1022719E02E4FB842C3
:103B200001D1032714E02D4FB84201D104270FE043
:103B30002B4FB84201D105270AE02A4FB84201D1E4
:103B4000062705E0284FB84201D1072700E00827E3
:103B500007FA08F72743CCF80878DAF80040574608
:103B6000D1F804C09C435FEACC2C00D51C433C60D8
:103B7000DBF800405F46D1F804C09C435FEA8C2C20
:103B800000D51C433C60DEF800407746D1F804C005
:103B90009C435FEA8C3C00D51C433C60084F083FC7
:103BA0003C68D1F804C09C435FEACC3C00D51C4380
:103BB0003C60521C102AFFF42FAFBDE8F88F0000C4
:103BC000083C0140443802400030014000000240FF
:103BD0000004024000080240000C024000100240B5
:103BE0000014024000180240001C02400069084016
:103BF00000D001207047426921EA02030A4043EAEB
:103C00000241816170470AB1816170470904FBE795
:103C10000148806870470000140000200248816855
:103C20000278114481607047140000200B4810B5E1
:103C3000016841F400710160016841F48061016034
:103C4000016841F480710160032000F09BF80120BD
:103C500000F006F800F050F8002010BD003C0240D3
:103C600030B505461F4887B00024016841F02001A7
:103C70000160006806A900F02000009001A800F093
:103C80002DF90498A8B100F049F940001649174AE7
:103C9000B0FBF1F11648491E026040F2E732C0E97C
:103CA0000324C0E90114846100F0B4FB040003D0D4
:103CB00015E000F033F9E9E70D4800F007FC0400D7
:103CC0000DD1372000F030F8102D07D20022294600
:103CD000372000F037F80748056000E0012407B0FE
:103CE000204630BD4038024040420F0000140040E2
:103CF000B8060020180000200A4808B5016841F401
:103D000080410160006800F4804000900548001F79
:103D1000016841F080510160006800F0805000901F
:103D200008BD000044380240002809DB00F01F02F3
:103D3000012191404009800000F1E020C0F800110D
:103D400070470000F0B40E4B1B680C46C3F302230F
:103D5000C3F10705042D00D90425191D072901D237
:103D6000002300E0DB1E012606FA05F1491E214072
:103D700099409E40761E16403143F0BC04F0D7BDFA
:103D80000CED00E0064900F0070208684FF6FF035B
:103D9000184040EA0220034A1043086070470000C0
:103DA0000CED00E00000FA052DE9F0470E46050095
:103DB00065D0DFF81481D8F80000F7B200F00700F2
:103DC000B04207D288F80070D8F8000000F0070071
:103DD000B04254D128683D4C810712D5400703D525
:103DE000206840F4E05020602878000703D5206860
:103DF00040F4604020602068A96820F0F00008438B
:103E000020602878C0072DD030496868083901281B
:103E100012D0022813D0032811D00968890700297D
:103E20002DDA216821F0030101432160FFF7F0FE44
:103E3000814641F2883A0EE009688903EFE7096894
:103E40008901ECE7FFF7E4FEA0EB0901514502D937
:103E50000320BDE8F0872068696800F00C00B0EB33
:103E6000810FEFD1D8F80010404601F00701B142B0
:103E700007D90770006800F00700B04201D00120A8
:103E8000E7E72878400705D52068E96820F4E05086
:103E9000084320602878000706D52068296920F4A7
:103EA000604040EAC100206000F058F82168084AEC
:103EB000C1F30311515CC840064908600648006818
:103EC000FFF7CEFE0020C4E7003C02400838024065
:103ED00024F8000820000020180000200F220260B3
:103EE0000C4A136803F003034360136803F0F00304
:103EF0008360136803F4E053C36012684FF4E05327
:103F000003EAD20202610448006800F0070008607A
:103F10007047000008380240003C02400448054950
:103F200000680968044AC1F38221515CC8407047A7
:103F3000200000200838024034F8000804480549F1
:103F400000680968044AC1F34231515CC8407047B7
:103F5000200000200838024034F80008154810B549
:103F6000006810F00C02144813D01449042A0FD032
:103F7000082A0ED10F4C241F2268236802F03F024A
:103F80005B0207D52068C0F38810A0FB010106E0A2
:103F9000084610BD2168C1F38811A1FB0001002370
:103FA000FCF76AF92168C1F30141491C4900B0FBE3
:103FB000F1F010BD083802400024F40040787D0183
:103FC0002DE9F84F04006ED02078DFF84C93C0073D
:103FD000A9F104054AD009F104000168C1F3810187
:103FE000012908D00068C0F3810002280AD1D9F85D
:103FF0000000400206D52868800337D56068002895
:10400000E1D033E06068B0F5803F10D0B0F5A02F6C
:10401000286810D020F480302860286820F48020A0
:1040200028606068A8B1FFF7F3FD06460DE0286838
:1040300040F48030F4E740F480202860F7E700BFC8
:10404000FFF7E6FD801B642873D828688003F7D546
:104050000CE0FFF7DDFD064605E000BFFFF7D8FDE9
:10406000801B6428F0D828688003F7D42078DFF814
:10407000AC8280074FF0000A3ED5A748001D0168BA
:1040800011F00C0F08D00068C0F3810002280BD19A
:10409000D9F80000400207D42868800716D5E068E8
:1040A000012800D112E033E1E068B8B10120C8F87E
:1040B0000000FFF7ADFD064605E000BFFFF7A8FDD5
:1040C000801B0228C0D828688007F7D52868216996
:1040D00020F0F80040EAC10028600DE0C8F800A018
:1040E000FFF796FD064604E0FFF792FD801B0228CD
:1040F0001FD828688007F7D42078000722D5864F7C
:1041000087486169703771B101210160FFF780FD57
:10411000064604E0FFF77CFD801B022809D83868BA
:104120008007F7D50EE0C0F800A0FFF771FD064646
:1041300005E082E0FFF76CFD801B02287DD838681F
:104140008007F7D42078400768D5DFF8CCB1002786
:104150000BF13C0BDBF80000C0000BD4DBF80010C7
:1041600041F08051CBF80010DBF80000012700F08F
:10417000805000906B4E3068C00510D4306840F419
:1041800080703060FFF744FD009005E0FFF740FDD0
:104190000099401A022850D83068C005F6D55E4E06
:1041A000A0686C3601280FD00528306810D020F0A8
:1041B00001003060306820F004003060A068B8B1C1
:1041C000FFF726FD00900FE0306840F00100F4E7B3
:1041D00040F004003060F7E7FFF71AFD0099411A3C
:1041E00041F28830814266D830688007F4D50EE00D
:1041F000FFF70EFD009007E0FFF70AFD0099411A56
:1042000041F28830814256D830688007F4D42FB10B
:10421000DBF8001021F08051CBF80010A069C8B382
:104220003D49091D0968C1F3810102294AD00228CC
:10423000504607D0C8F8600000E03CE0FFF7E8FC1B
:1042400004463BE04746C8F86000FFF7E1FC06463D
:1042500005E000BFFFF7DCFC801B02282BD8286894
:104260008001F7D4D4E907010843A16A2E4A49081E
:1042700002EB0141626A41EA8211084394F82C1072
:1042800040EA0161C9F8001001203866FFF7C0FC60
:10429000044606E03EE000BFFFF7BAFC001B022820
:1042A00009D828688001F7D534E000BFFFF7B0FCDB
:1042B000001B022802D90320BDE8F88F286880017E
:1042C000F4D427E00128F7D0D9F80000E26900F41F
:1042D000800191421CD1226A00F03F01914217D126
:1042E00047F6C071626A0140B1EB821F10D1A26A29
:1042F0004FF0FF3300F4403103EB5202B1EB024FB9
:1043000006D194F82C1000F07060B0EB016F01D072
:104310000120D1E70020CFE70438024000004742E7
:10432000800E4742007000400000FFFF704770475A
:1043300010B590F83C20012A22D0012280F83C20C0
:10434000CA688C6822F4407222434C6822F480626E
:1043500022430C6822F4006222430C6922F480524A
:1043600022434C6922F400522243C969002322F4FB
:1043700080420A4301684A6480F83C30002010BD46
:10438000022010BD70B590F83C20012A32D00124E3
:1043900080F83C40022280F83D2003685A689D68FE
:1043A00022F070060A6832435A60134B02689A4240
:1043B00014D0B2F1804F11D0104B9A420ED0104B56
:1043C0009A420BD00F4B9A4208D00F4B9A4205D01D
:1043D0000E4B9A4202D00E4B9A4204D1496825F006
:1043E00080031943916080F83D40002180F83C1023
:1043F000084670BD022070BD00000140000400406E
:1044000000080040000C0040000401400040014052
:104410000018004010B5040003D094F83D0010B11E
:1044200007E0012010BD002084F83C00204600F089
:104430001FF8022084F83D00211D206803F03CFB9A
:10444000012084F8460084F83E0084F83F0084F898
:10445000400084F8410084F8420084F8430084F866
:10446000440084F8450084F83D00002010BD0000A1
:1044700008B5124A01681248914207D1016841F417
:1044800080310160006800F4803009E00D4A9142FB
:1044900008D1016841F400310160006800F4003087
:1044A000009008BD084A9142FBD1016841F4802187
:1044B0000160006800F48020F2E700000040014045
:1044C00044380240004401400048014090F83D104B
:1044D000012901D001207047022180F83D100168B8
:1044E000CA6842F00102CA6000681149884214D0CB
:1044F000B0F1804F11D00F4988420ED00E4988424A
:104500000BD00E49884208D00D49884205D00D498C
:10451000884202D00C49884204D1816801F0070129
:10452000062903D0016841F00101016000207047B5
:10453000000001400004004000080040000C004062
:1045400000040140004001400018004070B50446DE
:1045500090F83C000025012817D0012684F83C6023
:10456000022084F83D002068826822F0770222F45D
:104570007F4282600868502838D00DDC20284FD058
:1045800005DC90B3102811D14AE0022070BD30281C
:1045900046D040280AD13BE060282FD070280DD0AB
:1045A000B0F5805F03D0B0F5005F12D0012584F82C
:1045B0003D60002084F83C00284670BDCB68D1E9FE
:1045C0000121206803F0EDFA2068816841F077014D
:1045D00009E0CB68D1E90121206803F0E2FA206804
:1045E000816841F480418160E1E719E0CA68496867
:1045F000206803F0ABFB5021206806E0CA684968D8
:10460000206803F0B4FB6021206803F0D4FACEE701
:10461000CA684968206803F099FB40212068F4E7E4
:10462000226801461046F0E72DE9F0410D460400EE
:1046300003D094F83D0018B108E00120BDE8F081F6
:10464000002084F83C00204600F040F8022084F866
:104650003D002068816844F2070291438160211D7A
:10466000206803F029FA226890689169166A2B681D
:10467000AF69034340F20330814341EA0721A86850
:10468000EF6908434FF6FC418843E96840EA072098
:10469000014328692F6A000140EA0730084369682E
:1046A0006D6926F0AA0646EA05152943936022683B
:1046B000906154F8460B0162012004F81F09E0756F
:1046C0002076E0762077A0750020B7E7F0B587B0B8
:1046D000044614216846FBF74AFE404923683F48D8
:1046E00010390224012503263D4A3E4FB3F1804F85
:1046F00015D0DFF8F4C063453CD1026842F00202F5
:104700000260006800F002000590086840F00200B6
:104710000860086800F00200059030203FE0036860
:1047200043F001030360006800F001000590086891
:1047300040F001000860086800F00100059008687A
:1047400040F0020008600868694600F00200059029
:104750004FF400408DE8710010460495FFF74EF9C4
:1047600008208DE87100049569463846FFF746F940
:1047700007B0F0BDDFF874C0634514D1026842F0A1
:1047800004020260006800F004000590086840F030
:1047900002000860086800F002000590C0208DE863
:1047A00071000494E0E7124FBB42E1D1036843F08B
:1047B00008030360006800F008000590086840F0F6
:1047C000010008600868CDE9006400F00100CDE94F
:1047D0000440CDE9025669461046C7E7403802401A
:1047E00000000240000402400004004000080040B5
:1047F000000C004070B590F83E60044690F83F50C1
:1048000090F8423090F84320022021B104290ED0C4
:10481000012E1BD114E0012E18D1012B16D184F8E2
:104820003E0084F8420001220021206820E0012D92
:104830000CD1012A0AD184F83F0084F8430014E027
:10484000012D03D1012B01D1012A01D0012070BD1E
:1048500084F83E0084F83F0084F8420084F8430066
:1048600001220021206803F08FF901220421206831
:1048700003F08AF92068016841F00101016000201D
:1048800070BD70472DE9F04104460068C6680569AF
:104890004FF00007A90713D5B10711D5F91E016123
:1048A00001202077206880698007204602D0FFF72A
:1048B000E8FF04E000F0ECF8204600F091F92777DB
:1048C000680716D5700714D521686FF004000861D9
:1048D000022020772068806910F4407F204602D0B3
:1048E000FFF7CFFF04E000F0D3F8204600F078F99E
:1048F0002777280715D5300713D521686FF00800F2
:104900000861042020772068C0698007204602D013
:10491000FFF7B7FF04E000F0BBF8204600F060F9B5
:104920002777E80616D5F00614D521686FF0100039
:104930000861082020772068C06910F4407F204675
:1049400002D0FFF79EFF04E000F0A2F8204600F03E
:1049500047F92777E80708D0F00706D021686FF0FD
:1049600001000861204600F0A1F9280608D53006AC
:1049700006D521686FF0800008612046FFF7D6FC5D
:10498000680608D5700606D521686FF040000861FA
:10499000204600F095F9A8060AD5B00608D521688A
:1049A0006FF0200008612046BDE8F041FFF7BFBC72
:1049B000BDE8F081F0B587B0044614216846FBF7E6
:1049C000D6FC2C4F236800262B4902250124032204
:1049D0002A48BB421BD10B6843F010030B600968E7
:1049E000CDE9024201F0100105914FF42061CDE9BB
:1049F0000015049469460746FFF700F84FF4C040DD
:104A00008DE86100CDE90364694638460CE01C4E30
:104A1000B3420DD10B6843F010030B60096801F03D
:104A20001001059160211DE0FEF7E8FF07B0F0BD21
:104A3000144E1548B34209D10B6843F002030B60D2
:104A4000096801F00201059181150BE00F4EB34298
:104A5000ECD10B6843F002030B60096801F002011E
:104A600005917115CDE90015CDE902420492694620
:104A7000DAE7000000000140303802400010024038
:104A80000040014000440140000402400048014051
:104A9000704770B5044690F83C0000260D4601288A
:104AA0000FD0012084F83C006AB1042A1DD0082AE6
:104AB0002FD00C2A3FD00126002084F83C0030463D
:104AC00070BD022070BD206803F07EF82068816907
:104AD00041F0080181612068816921F00401816150
:104AE000206881692A69114311E0206803F09CF86D
:104AF0002068816941F4006181612068816921F445
:104B000080618161206881692A6941EA02218161AD
:104B1000D2E7206803F0BEF82068C16941F00801BF
:104B2000C1612068C16921F00401C1612068C169C7
:104B30002A69114311E0206803F0E0F82068C16998
:104B400041F40061C1612068C16921F48061C161E3
:104B50002068C1692A6941EA0221C161ACE710B548
:104B6000040003D094F83D0010B107E0012010BD0F
:104B7000002084F83C00204600F01EF8022084F853
:104B80003D00211D206802F097FF012084F84600B7
:104B900084F83E0084F83F0084F8400084F8410027
:104BA00084F8420084F8430084F8440084F8450007
:104BB00084F83D00002010BD08B500680649884211
:104BC00008D10648016841F001010160006800F069
:104BD0000100009008BD0000000001404438024080
:104BE0007047000010B50446022249B104290ED0D6
:104BF000082913D094F84100012816D0012010BDD7
:104C000094F83E000128F9D184F83E200FE094F892
:104C10003F000128F2D184F83F2008E094F84000DA
:104C20000128EBD184F8402001E084F841200122E2
:104C3000206802F0A9FF16492068164A884201D070
:104C4000904203D1436C43F400434364206888429C
:104C500013D0B0F1804F10D00F4988420DD00F49CA
:104C600088420AD00E49884207D0904205D00D49AB
:104C7000884202D00C49884204D1816801F00701C2
:104C8000062903D0016841F001010160002010BD38
:104C90000000014000040140000400400008004002
:104CA000000C00400040014000180040006803492B
:104CB000884201D1FEF7B2BF7047000000140040E7
:104CC0007047704770470000F8B5016804460868EF
:104CD000CA684B6910F00F0F4FF0000559D003F070
:104CE000010602F49077374365D0C10705D0D1059E
:104CF00003D5616C41F001016164410705D5D90715
:104D000003D0616C41F002016164810705D5D907C8
:104D100003D0616C41F004016164010707D502F022
:104D20002001314303D0616C41F008016164616C82
:104D300000293AD0800604D5900602D5204603F01B
:104D400063F820684069616CC0F38010090700D4E3
:104D500060B3204603F031F820684069400621D551
:104D60002068143050E8001F21F0400140E8001294
:104D7000002AF5D1E06BA8B172490165E06BFEF73E
:104D800018FE002811D0E06B016D01B0BDE8F040C5
:104D9000084783060FD593060DD52046BDE8F84099
:104DA00003F032B82046FFF78DFFF8BD2046FFF72D
:104DB00089FF6564F8BD266B2023012E7ED1C606CF
:104DC0007CD5D6067AD508684868009048694FF0C7
:104DD000020640064DD5E26B106840684FF48077BC
:104DE0000004000C3AD0A18D814237D9E085D0690A
:104DF000B8422DD020680C3050E8001F21F480719B
:104E000040E80012002AF5D12068143050E8001F55
:104E100021F0010140E80012002AF5D12068143089
:104E200050E8001F21F0400140E80012002AF5D1AF
:104E300084F84230256320680C3050E8001F21F0D0
:104E4000100140E80012002AF5D1E06BFEF768FD82
:104E50006663A08DE18D401A81B206E0A18D81428A
:104E6000A8D1D069B842A5D166632046FFF729FFD3
:104E7000F8BDA08DE18D401A81B2E08D0028F7D0F9
:104E80000029F5D020680C3050E8002F22F49072F1
:104E900040E80027002FF5D12068143050E8002F9B
:104EA00022F0010240E80027002FF5D184F84230BB
:104EB000256320680C3050E8002F00E006E022F067
:104EC000100240E80023002BF3D1CDE705062BD5D7
:104ED000150629D594F841002128C9D1A068B0F55C
:104EE000805F01D12069B0B1206A411C2162216834
:104EF00000784860E08C401E0004000CE084B7D1CC
:104F00002068C16821F08001C1602068C16841F05B
:104F10004001C160F8BD206A0088C0F30800486005
:104F2000206A801C2062E5E74006F3D55006F1D5E3
:104F3000CA68204622F04002CA6084F8413000F07E
:104F40006FFBF8BDAD7D000870B5040004D094F887
:104F50004100002510B106E0012070BD84F84050EA
:104F6000204600F023F8242084F841002068C1681E
:104F700021F40051C160204602F0A8FF20680169B9
:104F800021F4904101612068416921F02A014161C9
:104F90002068C16841F40051C1606564202084F834
:104FA000410084F842006563002070BD2DE9F047A0
:104FB00086B0044614216846FBF7D9F97249DFF838
:104FC000C4C123680024704A10390225032608272B
:104FD0006E4863451FD1136843F4002313601268C1
:104FE00002F4002205920A6842F004020A6009688D
:104FF00002AB01F004010591B102CDE9001583E88F
:10500000D0006946FEF7FAFC002211463420FEF774
:1050100099FE342037E0DFF878C1DFF878A16345E6
:1050200036D1136843F480131360126802F48012BF
:1050300005920A6842F004020A600A6802F004025B
:1050400005920A6842F008020A60096802AB01F0A2
:10505000080105914FF48051CDE9001583E8D00097
:105060006946FEF7CBFC0420CDE9000502AB69469A
:1050700083E8D0005046FEF7C1FC002211463520DF
:10508000FEF760FE3520FEF74FFE06B0BDE8F08764
:10509000DFF80481DFF8F0C04FF007090CF1040CD1
:1050A000434524D1DCF8000040F01000CCF80000AB
:1050B000DCF8000000F010000590086840F00100E6
:1050C0000860086802AA00F0010005904FF4C06073
:1050D000CDE9000582E8500269463048FEF78EFCB3
:1050E000002211462520FEF72DFE2520CBE7DFF814
:1050F000B080434520D1106840F400301060106843
:1051000000F400300590086840F008000860086866
:1051100002AB00F0080005906020CDE9000583E8AF
:10512000500269465046FEF769FC002211462620CF
:10513000FEF708FE2620A6E71A4A9342A5D1DCF81E
:10514000002042F02002CCF80020DCF8002002F021
:10515000200205920A6842F004020A60096802AA65
:1051600001F004010591C021CDE9001582E8D000CD
:105170006946FEF743FC002211464720FEF7E2FD98
:10518000472080E7004C00404038024000080240C1
:1051900000500040000C024000100140000002409E
:1051A000004400400014014090F84230202B01D010
:1051B0000220704721B11AB10023036302F00CBF33
:1051C000012070472DE9F05FCC4900252DED028BC1
:1051D0000068CB4C884272D1001D006801265B2814
:1051E0000CD0A379C74F4FF0020B73B32146C64AC8
:1051F00049792C2805D05D2828D029E0A671657151
:105200001EE0C24E012B02D0022B0DD020E05554DF
:10521000BD4804F0DDF851EC100BFBF74EFD30609B
:10522000657184F806B00BE05554B74804F0D0F827
:1052300051EC100BFBF741FD706065710320A0710C
:105240002021B148FBF793F80DE120E0032B0CD0AF
:105250001F29F9D22E2816D0A0F13003092B12D91C
:105260002D2810D02B280ED0FDE05554A64804F070
:10527000AFF851EC100BFBF720FDA5490860A571B4
:1052800026703E70EFE05054491C6171EBE0A1497B
:10529000412815D0A0F14102072A17D9082815DDA9
:1052A000582813D0592811D04B280FD049280DD099
:1052B0004A280BD0432809D0472807D008E0D7E078
:1052C0002279412A02D10A7802B90E703D700E701F
:1052D0008B4900F0FF0C84F804C0DFF82CA28E4A42
:1052E000DFF83882DFF838928E4B8F4F8978AAF139
:1052F000320A4B2808D0492808D04A2806D01B7803
:105300002BB1012B0CD022E01E700DE01D70A0F11E
:105310004103072B29D9082818DC82F800C01FE0B8
:1053200043280AD047280DD088F8005089F800504B
:1053300041281AD0452818D008E088F8005089F88C
:10534000006003E088F8006089F800501570DFED18
:10535000770A754A582892ED000A0AD059280BD0CE
:105360007B2813D07D2817D00AE0A0F140031370EA
:10537000EDE730EE200A01E030EE600A87ED000A2A
:105380006078012803D0022808D06CE066700AF823
:1053900001C0491CA17066E084F801B09AF80320AE
:1053A0005046502A05D04278232A47D0E170D04693
:1053B0002AE05F48067041E0A178081AFBF74CFC30
:1053C00041EC110B9FED5B0B04F0C6F8E678B0EEF4
:1053D000408A08EB0600F0EE608A10F8010C3038C5
:1053E000FBF73AFC53EC182BFBF7C4FB41EC180B12
:1053F0002069FBF74FFC53EC182BFBF714FBFBF772
:105400005CFC761E2061E670E0780428D4D298F81F
:1054100001003038032811D2DFE800F002070B004A
:1054200094ED040A87ED000A08E094ED040A43486D
:1054300002E094ED040A424880ED000A6570A57010
:10544000E5709FED408A304884ED048A322132387D
:10545000FAF78DFF97ED000AB5EEC00AF1EE10FAEB
:1054600001D287ED008A26490122C91D36483BE05A
:105470003649884217D1244E60894A36315C0A2960
:105480000AD0401C80B26081FF2800D96581608904
:10549000311801222E4827E0304445701A484A301E
:1054A00001F0D0FBF2E72B49884223D1A08940F2DA
:1054B000FF3188420BD2284A217A1154401C80B215
:1054C000A081B0F5967F0BD9FDF7A0F908E0A58182
:1054D0004FF480612048FAF74AFF20A005F0E0FD74
:1054E0000749012225480831BDEC028BBDE8F05F79
:1054F000FFF75ABEBDEC028BBDE8F09F00440040B0
:1055000000010020180100209E0B0020BC0200209A
:105510000000002048000020490000206C0000200E
:105520006D0000206E0000203C000020000048427A
:105530006F00002000000000000024404000002018
:105540004400002000000000280600200050004019
:105550009805002000140140E80C00205BBEAFB8A5
:10556000E65D20BDD3CAD5BBBAB3E5C7F8D2E7B371
:10557000F6A3ACD2D1D6D8D6C30D0A00700600204F
:105580002DE9F843044690F84100984616460D462A
:10559000202802D00220BDE8F88385B17EB100202A
:1055A0006064212084F84100FEF732FBA684814626
:1055B000E684A0682027B0F5805F02D003E00120D8
:1055C000E9E7206910B12E4600250EE000260CE028
:1055D0008021204602F01BFDA8B9C6B116F8010BC8
:1055E00021684860E08C401EE084E08C4B464FF020
:1055F0000002CDF800800028EAD14FF0400120469B
:1056000002F005FD40B184F841700320C3E735F88E
:10561000020BC0F30800E3E784F841700020BAE70A
:105620007047FEE710B586B014216846FAF79FFE72
:105630001148016841F00201016000680F4C00F060
:10564000020005904FF4406000901120019001206D
:1056500002900220039069462046FEF7CFF901220E
:1056600091022046FEF7CFFA0122D1022046FEF732
:10567000CAFA06B010BD00003038024000040240F3
:1056800070B50D46044600F0D7F8204600F0A4F8A7
:1056900000F01AF9284600F09FF800F015F900F024
:1056A000CBF8641CE0B200F097F800F00DF9002090
:1056B00000F05EF8044600F0E7F8204670BD70B5D3
:1056C00015460E46044600F0B7F8204600F084F870
:1056D00000F0FAF8304600F07FF800F0F5F82846C0
:1056E00000F07AF800F0F0F800F0CEF8012070BD7C
:1056F00070B50D4C0025C4F8A8520C48016821F47F
:1057000040010160016841F480010160C4F8AC52BD
:10571000012004F52A7405F005FD0120206005F044
:1057200001FD256070BD0000008040420004024081
:1057300070B50D4C0025C4F8A8520C48016821F43E
:1057400040010160016841F4800101600126C4F854
:10575000AC62304604F52A7405F0E4FC26600120B2
:1057600005F0E0FC256070BD00804042000402406E
:105770002DE9F047814616480024016821F44001D4
:10578000016001680160134E254627464FF001086D
:10579000C6F8A872022005F0C5FCC6F8A88260060B
:1057A000040ED6F82C0208B1641CE4B2022005F005
:1057B000B9FC6D1CEDB2082DEAD3B9F1000F02D08F
:1057C000FFF796FF01E0FFF7B3FF2046BDE8F08743
:1057D00000040240008040422DE9F0410646144892
:1057E000016821F440010160016841F48001016019
:1057F000104C0027C4F8A8723D464FF00108F0098C
:10580000C4F8AC027006060E012005F08BFCC4F84B
:10581000A882012005F086FCC4F8A872012005F0DA
:1058200081FC6D1CEDB2082DE9D3BDE8F0810000CC
:10583000000402400080404270B51148016821F424
:1058400040010160016841F4800101600D4C0120BC
:10585000C4F8AC02D4F82C1249B1C4F8A80205F07F
:1058600061FC0025C4F8AC52D4F82C0208B1002029
:1058700070BD012005F056FCC4F8A852012070BD8F
:1058800000040240008040420D4810B5016821F438
:1058900040010160016841F480010160094C002071
:1058A000C4F8A802C4F8AC02012004F52A7405F07B
:1058B00039FC012020606060BDE8104005F032BC7A
:1058C000000402400080404270B512480024016884
:1058D00021F440010160016801600F4D0126C5F807
:1058E000AC62304605F01EFCC5F8A86207E0641CF7
:1058F000E4B2322C03D9FFF7C7FF002070BD0120AE
:1059000005F010FCD5F82C020028F0D1C5F8A8024B
:10591000012070BD000402400080404210B51446D2
:10592000FFF7AEFE2070012010BD2DE9F8431446AC
:105930001D460F4680466A46089EFFF7EFFF002887
:105940001BD0611CFF20C4F1080200FA01F12A44B7
:10595000521ED0400143C5F108008640F2B2C4F1A6
:105960000700C2409DF80000084010438DF8000079
:10597000C2B23946404600F002F8BDE8F88307B5E8
:1059800002AB012200F001F80EBD2DE9F0411E46E8
:105990001546884607460024FFF74EFF3846FFF7B6
:1059A0001BFFFFF791FF4046FFF716FFFFF78CFF45
:1059B00006E0305DFFF710FFFFF786FF641CE4B2DE
:1059C000AC42F6D3FFF760FF0120BDE8F081000094
:1059D000174830EEC00A1749D0ED120A174A91ED68
:1059E000001A70EE600A144960EE810A91ED001A07
:1059F00041EE000A90ED111A70EE810A10EE901A35
:105A0000C0ED110A914203DDDFED0D0AC0ED110A70
:105A100010EE901A0B4A914203D9DFED0B0AC0ED4C
:105A2000110A80ED120ABDEEE00A10EE100A70476E
:105A30001801002040000020440000200080BB44EA
:105A40000080BB440080BBC40080BBC4174830EE5C
:105A5000C00A1749D0ED150A174A91ED001A70EEE9
:105A6000600A144960EE810A91ED001A41EE000AC5
:105A700090ED141A70EE810A10EE901AC0ED140A1F
:105A8000914203DDDFED0D0AC0ED140A10EE901A0D
:105A90000B4A914203D9DFED0B0AC0ED140A80EDE9
:105AA000150ABDEEE00A10EE100A7047180100203A
:105AB00040000020440000200080BB440080BB4424
:105AC0000080BBC40080BBC4174830EEC00A174931
:105AD000D0ED180A174A91ED001A70EE600A1449C9
