:020000040800F2
:10000000A8690020550200081F6B00085758000817
:100010001D6B0008191F0008E1890008000000009E
:100020000000000000000000000000009D0100082A
:100030007D21000800000000F10100086182000835
:100040006F0200086F0200086F0200086F020008CC
:100050006F0200086F0200086F0200086F020008BC
:100060006F0200086F0200086F0200086F020008AC
:100070006F0200086F0200086F0200086F0200089C
:100080006F0200086F020008DD1600086F0200080A
:100090006F0200086F0200086F0200086F0200087C
:1000A0006F0200086F0200086F0200086F0200086C
:1000B0006F0200086F0200086F0200086F0200085C
:1000C0006F0200086F0200086F0200086F0200084C
:1000D0006F020008D5880008E18800086F02000858
:1000E0006F0200086F0200086F0200086F0200082C
:1000F0006F0200086F0200086F0200086F0200081C
:100100006F0200086F0200086F0200086F0200080B
:10011000E9850008F58500086F02000801830008E2
:100120006F0200086F0200086F0200086F020008EB
:100130006F0200086F0200086F0200086F020008DB
:100140006F0200086F0200086F0200086F020008CB
:100150006F0200086F0200086F020008ED880008B7
:100160006F0200086F0200086F0200086F020008AB
:100170006F0200086F0200086F0200080000000014
:100180006F0200086F020008DFF80CD001F024F8BD
:1001900000480047DDD20008A86900202A4B1968F2
:1001A0000868B0E8F04F80F30988BFF36F8F4FF015
:1001B000000080F3118870470000000006480068C6
:1001C000006880F3088862B661B6BFF34F8FBFF353
:1001D0006F8F00DF00BF00BF08ED00E0DFF80C000C
:1001E000016841F470010160704700BF88ED00E0D4
:1001F000EFF30980BFF36F8F134B1A681EF0100FD7
:1002000008BF20ED108A20E9F04F106008B44FF0CD
:10021000500080F31188BFF34F8FBFF36F8F0FF043
:10022000CFF84FF0000080F3118808BC1968086807
:10023000B0E8F04F1EF0100F08BFB0EC108A80F34A
:100240000988BFF36F8F704740020020EFF30580ED
:10025000704700000648804706480047FEE7FEE773
:10026000FEE7FEE7FEE7FEE7FEE7FEE7FEE7FEE766
:10027000F1820008890100082DE9F05F05460020A1
:1002800092469B4688460646814640241BE0284607
:1002900041464746224600F05FFD53465A46C01A83
:1002A000914110D311461846224600F046FD2D1A02
:1002B00067EB01084F4622460120002100F03DFD7A
:1002C00017EB00094E41201EA4F10104DFDC484673
:1002D00031462A464346BDE8F09F2DE9F04100240F
:1002E000061B254671F1000605DA01240027D0EB34
:1002F000070067EB0101161E73F1000605DA0027FF
:10030000D2EB0702012567EB0303FFF7B5FF864633
:100310000E4617469C46AC4204D00025D0EB050E95
:1003200065EB010624B10020D2EB000760EB030C63
:10033000704631463A466346BDE8F08110B5431A2F
:10034000934209D28318881803E010F8011D03F8BE
:10035000011D521EF9D210BD40EA01039B0703D0D4
:1003600009E008C9121F08C0042AFAD203E011F8F4
:10037000013B00F8013B521EF9D210BDD2B201E0A0
:1003800000F8012B491EFBD270470022F6E710B59A
:1003900013460A4604461946FFF7F0FF204610BDF3
:1003A00030B505462A460B4612F8010B13F8014BEF
:1003B00008B1A042F8D01CB1002802D06D1CF1E7B2
:1003C000284630BD10B5044604E00B7800F8013B28
:1003D00003B1491C521EF8D2204610BDCAB2401EBD
:1003E00010F8011F8A4202D00029F9D1002070477D
:1003F000421C10F8011B0029FBD1801A704710B570
:10040000002200E0521C835C8C5CA34201D1002BD3
:10041000F8D1D8B2E1B2401A10BD30B50446002080
:10042000034600E05B1C934203D2E05CCD5C401BC2
:10043000F8D030BD034611F8012B00F8012B002A3B
:10044000F9D11846704730B505460020034600E054
:100450005B1C934205D2EC5CC85C201A01D1002CD5
:10046000F6D130BD0FB400B58DB010A909900B9036
:1004700000914FF0FF300A9000200C900548069044
:10048000054807906A4609A80F9900F09BFC0DB03B
:100490005DF814FBE10D0008FF0D00082DE9FF5F7A
:1004A0001D464FF0FF3BD5E9014691465F464FF0B0
:1004B0000008A9697F1C01988847296A82468847F5
:1004C0000028F6D1BAF1FF3F0CD024F4C064002E0E
:1004D00019DD600614D5BAF12B0F09D0BAF12D0F32
:1004E0000ED103E0584604B0BDE8F09F44F48064A8
:1004F000A9697F1C01988847761E8246002E02DD7E
:10050000BAF1300F03D0B9F1000F26D032E0A9695B
:10051000761E44F400747F1C019888478246002EA2
:1005200005DDBAF1780F06D0BAF1580F03D0B9F152
:10053000000F10D01EE0B9F1000F02D0B9F1100F7A
:1005400018D1A969761E24F400747F1C019888478D
:100550008246102002E0082000E00A20814609E0DF
:1005600008FB0908A969761E44F400747F1C0198F1
:1005700088478246002E05DD4946504600F00EFCB5
:100580000028EDDAE96901988847A00502D46FF0E8
:100590000100A8E7E00725D1600613D5600502D564
:1005A000C8F1000000E0404629680A1D2A60096879
:1005B000220501D5087015E0220701D5088011E059
:1005C00008600FE02868011D29600068210502D538
:1005D00080F8008006E0210702D5A0F8008001E045
:1005E000C0F8008038467EE72DE9FF5FD2E901A719
:1005F0004FF00008916999461446DDF838B0464638
:1006000001988847054659EA0B0005D009E0A16921
:10061000761C019888470546216A284688470028A5
:10062000F5D1681C03D05FEACA7005D015E04FF021
:10063000FF3004B0BDE8F09F2068011D2160D0F8B4
:1006400000800AE05FEACA7001D108F8015BA16985
:10065000761C7F1E019888470546002F1ADD681C0E
:1006600018D0B9F1000F0DD0E81705EBD06042119A
:1006700020F01F0059F822102A1A01209040014250
:10068000E0D107E0BBF1000FDCD1216A28468847A2
:100690000028D7D0E16901988847BBF1000F07D146
:1006A000002E05DD5FEACA7002D1002188F8001033
:1006B000A068B84203DDBBF1000F03D017B16FF0A3
:1006C0000100B6E73046B4E72DE9FF4F087883B064
:1006D0009946FF2805D0491C2D2804D0002400206D
:1006E00008E000200BE00124F9E700EB800003EBB9
:1006F0004000491C0B78FF2BF7D104B14042002386
:100700000293147819461D462D2C01D02B2C04D1B0
:10071000521C2D2C13D000240294AA461478FF2CCE
:100720000FD00A25A3FB057801FB05814FF0000CD3
:1007300003FB0C11521CE3194AEB0101EEE7012403
:10074000EAE7814453EA010002D019F5C87F06DACE
:1007500003980021C0E9001107B0BDE8F08F002523
:10076000AE4E2F46DFF8B882184600F0F9FCCDE90E
:100770000001B9F1000002DAC9F1000400E004460A
:100780000023A74A1AEB030B42EB045A12E0E007DE
:1007900007D02A4633463846414600F0F9F9074665
:1007A00088462A4633461046194600F0F1F90546B8
:1007B0000E466410002CEAD1DDE90001B9F1000F0A
:1007C0005A46534606DA00F045FC3A46434600F0E6
:1007D00041FC05E000F0DCF93A46434600F0D8F968
:1007E000029A0AB181F00041039AC2E90001B3E71D
:1007F0002DE9FF4F1F468DB0D7E901464FF0FF3876
:100800002E2045464FF000090B90B9696D1C0E98DB
:100810008847396A824688470028F6D1BAF1FF3FF7
:100820000AD024F4D064002E11DDBAF12B0F08D0C9
:10083000BAF12D0F0BD102E0404611B08DE744F420
:100840008064B9696D1C0E9888478246761E694699
:10085000600501D52D2000E02B208DF8000001F16E
:10086000010B0DF1200809E0B9696D1C0E9888474D
:1008700082460F9844F40074761E0560002E02DD57
:10088000BAF1300FF0D00B998A453ED144F0800484
:1008900006E00F99681CA9F1010944F4007408608E
:1008A000B9696D1C761E0E98884782463028F0D0B4
:1008B0002BE00B998A4505D1200603D444F080042F
:1008C000761E18E050460AF0C1FB08B30DF1130183
:1008D000761E44F400748B4508D2AAF130000BF860
:1008E000010B200607D5A9F1010003E0200602D480
:1008F00009F101008146A00502D50F99681C086026
:10090000B9696D1C0E9888478246002ED1DC53E0F1
:10091000002E51DDBAF1650F02D0BAF1450F4BD16F
:10092000A00549D5B9696D1C24F44074761E0E9853
:1009300088478246002E0CDD2B2804D0BAF12D0FFB
:1009400007D144F48074B9696D1C0E9888478246BB
:10095000761EE00501D52D2100E02B2108F8011BB2
:10096000CDF82C8021E00DF12901761E44F40074AD
:1009700088450CD2AAF1300010F0FF0088F8000082
:1009800002D10B99884509D908F1010806E0E00574
:1009900001D5244801E042F20F708146B9696D1C0F
:1009A0000E98884782460F980560002E04DD504659
:1009B0000AF04CFB0028D6D1F9690E988847FF2031
:1009C0008BF8000088F800000020069007904B4646
:1009D0006A4608A906A8FFF777FEA00502D46FF0C3
:1009E00001002AE714F0240F0AD0E00714D1DDE952
:1009F00006123868031D3B600068C0E900120BE076
:100A0000DDE9060100F067F90146E00704D1386826
:100A1000021D3A600068016028460EE7000014409D
:100A20000000F03FF1D8FFFF70B5064608F084FBE8
:100A3000046805460A220021304600F03FFA2C6087
:100A400070BD2DE9FE4F804681EA0300C00F0C46C1
:100A5000009021F0004123F00045B8EB0200A941CD
:100A600005D24046214690461C460B46024623F0DE
:100A70000040104347D0270DC7F30A00C3F30A51C3
:100A80000290401A019040286BDAC3F3130040F43F
:100A9000801B0098924620B10023D2EB030A63EB3F
:100AA0000B0B01985946C0F14002504600F045F941
:100AB00006460D4650465946019A00F05DF910EB86
:100AC00008006141002487EA115284EAE7731A435F
:100AD00040D0009A62B3019A012A4FEA075215DC0E
:100AE000001B61EB02014FF0004202EA0752CDE920
:100AF0000042001C41F5801132462B4600F05CFAA2
:100B000003B0BDE8F08F40462146F9E7001B61EBDA
:100B10000201001C41F5801300185B412018A2F56A
:100B2000001747EB030140EAD570B6196D4111E09B
:100B30006D084FEA360645EAC0754FEA0752001BBA
:100B400061EB0201001C41F5801149084FEA3000B9
:100B50000019514132462B4603B0BDE8F04F00F07A
:100B60001CBA0098012240000023D0EB020263EB84
:100B7000E073009821464FEAE074B8EB000061EBA7
:100B80000401E9E783F000435BE781F0004158E7A7
:100B90002DE9FE4F81EA030404F0004421F00041F6
:100BA00000944FF0000B23F0004350EA01045ED0A4
:100BB00052EA03045BD0C3F30A54C1F30A552C4430
:100BC000A4F2F3340194A0FB0254C1F3130141F4E5
:100BD0008011C3F3130343F4801301FB024400FBB1
:100BE000034E840A970A44EA815447EA8357A4FBD8
:100BF000076802958D0A05FB07854FEA932C04FBD5
:100C00000C542705029D4FEA065847EA1637B5EB04
:100C100008056EEB070C870E920E47EA811742EA31
:100C20008312A7FB0201B6EB0B0164EB00042B0D52
:100C300043EA0C335E1844EB1C50DA465146E7FB9E
:100C40000201C5F313044FEA0B3343EA14534FEA8E
:100C50000432019C43EA0603A4F10C040294009CB4
:100C6000CDE900B400F0A8F903B0BDE8F08F002092
:100C70000146F9E70EB5C10F80EAE0700844CA07E3
:100C8000002140F233438DE80E000A460B4600F087
:100C900093F903B000BD0EB540F23341029100213B
:100CA000CDE900110A460B4600F086F903B000BDFD
:100CB00000F0004230F000400AD0C10D01F5607133
:100CC000C0F3160042EA0151C208400711437047C1
:100CD00000200146704701F0004330B421F000418C
:100CE00050EA010206D00A0DA2F56072C1F31301A9
:100CF000002A02DC30BC00207047440F44EAC104E3
:100D0000C100E01830BC00EBC25000F00FB930B5A4
:100D10000B46014600202022012409E021FA02F5B9
:100D20009D4205D303FA02F5491B04FA02F5284453
:100D3000151EA2F10102F1DC30BD202A04DB203AAD
:100D400000FA02F1002070479140C2F1200320FA1E
:100D500003F3194390407047202A04DB203A21FA1C
:100D600002F00021704721FA02F3D040C2F12002C4
:100D70009140084319467047202A06DBCB17203ADA
:100D800041FA02F043EAE07306E041FA02F3D04090
:100D9000C2F1200291400843194670473A2800D218
:100DA000303820F02002412A01D3A2F137008842D6
:100DB00001D34FF0FF30704702681144137801608F
:100DC00018467047D16004495161044911620021FD
:100DD0001161114600F020BAB90D00080512000893
:100DE000426842B1016811F8013B23B1521EC0E9CB
:100DF0000012184670470121C160881E7047426882
:100E00005AB1C368016843B983688B4205D0491E53
:100E1000521CC0E90012002070474FF0FF307047AD
:100E20000FB4002300B589B00CA900910B996FF0A5
:100E30000042CB601E4B06931E4B07930423CDE963
:100E400001321D4A089202466B460020FFF7D0FC93
:100E500009B05DF814FB70B586B006464FF0FF3060
:100E60000091CDE90101002015460C460490324660
:100E7000694604A8FFF7D4FF02460498211825B15B
:100E800008B1084600E020462860049800280DD0EC
:100E9000002A02DD0098884208D0081B0094CDE9A2
:100EA00001043246694604A8FFF7BAFF06B070BDD8
:100EB000E10D0008FF0D0008051200082DE9F047BC
:100EC00091460F4680460446002614F8015B2DB17A
:100ED00000F094F90068405DC007F6D12B2D02D0D8
:100EE0002D2D18D0641E4A463946204600F02AFBB4
:100EF00027B13968A14201D1C7F8008071054FF0D0
:100F000002040BD54042002803DD08F015F9046007
:100F1000A007BDE8F08746F48066E4E70028F8DA29
:100F200008F00AF904606FF00040F2E70029A8BF5A
:100F30007047401C490008BF20F00100704710B402
:100F4000B0FA80FC00FA0CF050EA010404BF10BCB7
:100F5000704749B1CCF1200421FA04F411FA0CF1E4
:100F600018BF012121430843A3EB0C01CB1D4FEA1D
:100F700000614FEA102042BF002010BC704700EB18
:100F8000C35010440029A4BF10BC7047401C490046
:100F900008BF20F0010010BC704710B5141E73F19B
:100FA000000408DA401C41F1000192185B411A4329
:100FB00001D120F0010010BD2DE9F04D92469B4675
:100FC00011B1B1FA81F202E0B0FA80F2203290461B
:100FD000FFF7B3FE04460F4640EA0A0041EA0B0160
:100FE00053465A46084313D0114653EA010019D01C
:100FF000C8F140025046FFF7AFFE05460E46504688
:1010000059464246FFF799FE084305D0012004E007
:1010100020463946BDE8F08D0020054346EAE076DB
:101020002C4337430A986305E40AA0EB080000222A
:10103000FD0A44EA47540A3002D500200146E9E798
:10104000010510196941DDE9084500196941BDE84C
:10105000F04DA2E72DE9F04D81EA030404F0004BC6
:1010600021F0004514464FF0000A23F0004150EAF9
:10107000050220D054EA01021DD0C5F30A570246EA
:10108000C5F31303C1F31300C1F30A5640F48015EE
:1010900043F48013A7EB0608101BD64608F2FD3870
:1010A00073EB050002D308F1010801E092185B41DF
:1010B000B8F1000F03DA00200146BDE8F08D0020F2
:1010C0004FF48011064684460EE0171B73EB0507AC
:1010D00005D3121B63EB050306434CEA010C4908D8
:1010E0004FEA300092185B4150EA0107EDD152EA15
:1010F000030012D082EA040083EA0501084305D008
:10110000101BAB4106D20122002306E000224FF063
:10111000004302E06FF0010253101AEB06004CEBA3
:10112000085110EB0A0041EB0B01BDE8F04DFFF751
:1011300034BF70B521F0004303430CD0C1F30A550E
:101140000024D5EB040564EB0403D617AD1AB341B4
:1011500002DB0020014670BD201841EB025170BD3A
:101160000EB540F2334202920022CDE9002213462E
:10117000FFF722FF03B000BDC1F30A52C1F3130110
:1011800040F2FF3341F480119A4202DA0020014616
:10119000704740F233439A42A2F2334202DC524299
:1011A000FFF7DABDFFF7C9BD30B5041E71F10004C9
:1011B00004DB4FF00044404264EB0101141E73F164
:1011C000000405DB1C464FF00043524263EB04036E
:1011D000994208BF904230BD064C074D06E0E068DA
:1011E00040F0010394E8070098471034AC42F6D36E
:1011F000FEF7CEFF1424010834240108004870478C
:101200005C23010810B50446FFF7F8FF0068005D95
:1012100000F0010010BD00002DE9F34F8BB04FF03E
:10122000000801F10C000C464FF0010B46460DF191
:10123000080A01906269012101989047051E2DD08E
:10124000252D2CD0216A8847C0B1626901210198FF
:101250009047216A88470028F7D1411E62690198AA
:10126000904700E0761CA1690B988847216A88475F
:101270000028F7D1E1690B988847DBE7A1690B9853
:1012800088470746A84201D1761CD3E7E1690B984D
:1012900088477F1C02D1B8F1000F6FD046E10027CC
:1012A00062693D463946019890472A2804D162690F
:1012B0000121019890470125DFF88492626901219C
:1012C00001989047A0F130010A290AD24F45E5DC88
:1012D00007EB870100EB4107303FDFD445F01005F5
:1012E000ECE7E90601D46FF000476C280AD04C28DF
:1012F00014D0682815D06A280DD074281CD07A28FC
:101300001AD01DE062690121019890476C2802D033
:1013100045F0040514E045F002050DE045F0200518
:101320000AE06269012101989047682802D045F0DF
:10133000080505E045F400656269012101989047C0
:10134000C4E9015765283DD019DC58287AD00CDC57
:10135000452837D004DC252826D0412831D131E07A
:1013600046282FD047282CD12CE05B2877D0612845
:1013700028D063287CD0642823D15AE0D0E06F289D
:1013800048D008DC66281DD067281BD0692821D0EA
:101390006E2816D127E0702845D0732868D07528AC
:1013A00047D078280DD14DE0A1690B9888470546B4
:1013B00025283FF469AFE1690B9888476D1C3FF41D
:1013C0006AAFB3E023466A466FF001000B99FFF75E
:1013D0000FFA9EE045F040006060A80723464FF0FA
:1013E000000236D43EE0E8077FF447AF2068011DD5
:1013F00021600068290501D506701BE7290701D582
:10140000068017E7A90703D5F117C0E9006111E7C6
:1014100006600FE745F040006060A80723464FF0E4
:10142000080216D41EE040F60E0125EA01006060B5
:1014300016E045F040006060A80723464FF00A021E
:1014400007D40FE045F040006060A80708D52346A8
:1014500010226FF001000B99AFF3008059E007E014
:10146000234610226FF001000B99FFF717F850E0A8
:101470004FF000094F464B46632802D05B2806D048
:1014800040E0E80601D40120A06001273AE062694B
:101490000121019890475E2805D14FF0010962694A
:1014A000494601989047216939B900210A465346B7
:1014B00043F82120491C0829FADBB0B3216969B936
:1014C000C11700EBD16253110AEB830122F01F0216
:1014D000821A01200B68904003430B60626901216E
:1014E000019890475D28E8D1B9F1000F09D000209C
:1014F000514651F82020D24341F82020401C0828B2
:10150000F7DB02AB224600976FF001000B99FFF763
:101510006BF800280CDA401C08D1BBF1000F05D095
:101520004FF0FF300DB0BDE8F08FFFE74046F9E720
:10153000E90701D108F1010806444FF0000B79E6F4
:10154000CCCCCC0C2DE9F05F824600780027154604
:101550008B460AF10104B946302801D09DB113E051
:1015600014F8010B0127782803D0582801D045B181
:101570000AE00DB1102D07D10027102514F8010B3A
:1015800002E0082500E00A250026B0460EE005FB33
:10159000080005FB06F1012701EB10461FFA80F851
:1015A000B6F5803F00D3B94614F8010B2946FFF782
:1015B000F5FB0028EBDABBF1000F05D00FB1641E7C
:1015C00000E05446CBF80040B9F1000F06D007F018
:1015D000B3FD02210160C81EBDE8F09F48EA064045
:1015E000FAE72DE9F04D00231A461B1A8A4103DB66
:1015F00000200146BDE8F08DC1F30A52C1F313018A
:1016000041F480154FF0000BD10702D100186D4155
:10161000521E0027044640F2FF11384601EB620AD1
:101620003E468046024600204FF48011FFF794FBAF
:10163000C2197141BB1846EB0100B4EB030C75EB0A
:10164000000C04D3E41A65EB000517460E46241976
:1016500008F101006D4180463428E3DDF91946EBBD
:101660000600091BA84103D24FF0FF32134601E0E8
:10167000002213461BEB070046EB0A51BDE8F04D74
:10168000FFF78BBC70B58C1810F8015B15F00703E1
:1016900001D110F8013B2A1106D110F8012B03E00B
:1016A00010F8016B01F8016B5B1EF9D12B0705D413
:1016B0000023521E0DD401F8013BFAE710F8013B5C
:1016C000CB1A921C03E013F8015B01F8015B521E78
:1016D000F9D5A142D8D3002070BD0000014802F026
:1016E0006AB80000D0020020464910B54A6822F4CA
:1016F00040324A604A6843681A434A6001684A684F
:1017000022F480724A6001684A68036942EA03224F
:101710004A6001684A6822F040724A6001684A687B
:1017200083681A434A6001688A6822F400628A600A
:1017300001688A68C3681A438A60816A6FF07062C0
:10174000D14201688A6822F070628A6001688A6802
:101750000CD0836A1A438A6001688A6822F040527A
:101760008A6001688A68C36A1A4301E022F0405225
:101770008A6001688A6822F002028A6001688A68C9
:10178000037E42EA43028A6090F820100029016833
:101790004A680FD042F400624A6001684A6822F445
:1017A00060424A6001684A68174C436A04EB43335D
:1017B0001A4301E022F400624A600168CA6A22F416
:1017C0007002CA620168CA6A838B104C04EB03532F
:1017D0001A43CA6201688A6822F400728A6001684A
:1017E0008A6890F8303042EA43228A6001688A6849
:1017F00022F480628A6001688A68406942EA802037
:10180000886010BD0023014000E0FFFF0000F0FFF2
:101810002DE9FC4137489FED381A9FED380AD0ED8D
:10182000000A10EE810AF3EE0B0A80EE201ABDEEDC
:10183000C10A10EE106A642E00DD64263048DFED28
:10184000310A90ED000A20EE200ABDEEC00A10EE2B
:10185000105A002D00DA6D422B4890ED000A20EE60
:10186000200ABDEEC00A10EE104A002C00DA6442D5
:101870002649487998B10020254F487139780129C7
:101880000FD050B32348B0F90430B0F90220B0F9BA
:10189000001002B020A0BDE8F04107F0D5BB012048
:1018A000EAE7214890ED000A2048BDEEC00A10EE9C
:1018B000103A90ED000A1E48BDEEC00A10EE102A44
:1018C00090ED000A1BA0BDEEC00A10EE101A07F042
:1018D000BBFB00203870BDE8FC811A480068FFF7A8
:1018E000E7F9CDE90001E2B2E9B2334616A007F00C
:1018F000ABFBF0E70800002000007A4400401C46E3
:10190000140B00200000C842280B00202C000020EF
:101910006F000020BE0000207B4225643A25643A17
:1019200025647D24000000004400002040000020C9
:101930003C0000207B4325643A25643A25647D24DD
:1019400000000000B00000207B4125643A25643A85
:1019500025643A25647D24002DE9F04F2DED088B98
:10196000CBB08648874990ED009A8548D1ED000AB2
:1019700090ED000A70EE609A90ED010AD1ED010A37
:1019800030EE608A29EEA90A08EE080A09F0C8F8C4
:10199000F0EE408AF0EE690AB0EE480A07F0E4FF84
:1019A000DFED79AA20EE2A0A9FED78BA784980EE19
:1019B0000BAAC86F401CC8673221B0FBF1F201FBD3
:1019C000120000282AD119EE100AFFF771F9064615
:1019D0000F461AEE100AFFF76BF904460D4618EE93
:1019E000900AFFF765F982468B4618EE100AFFF75A
:1019F0005FF98046894619EE900AFFF759F90A46C1
:101A00008DE8050F06AB63A283E8F0004FF4807108
:101A10000AA807F029FB0AA80DF03EF95C4C6C4DB2
:101A200094ED040AF4EEC08AF1EE10FA25D20120FA
:101A30006070D5ED000AB0EE490A07F0B7FAE16F21
:101A40003220B1FBF0F200FB1210B0EE408A68B910
:101A500018EE100AFFF72CF9CDE900015DA28021F4
:101A600002A807F001FB02A80DF016F9B0EE481A23
:101A70009FED610AF0EE400A79E0002060703AEED6
:101A8000490ADFED5E0A5E4902E000BF30EE600AFF
:101A900010EE100A8842F9DC5A4900BF10EE100A15
:101AA000884202D930EE200AF8E7D4ED020A20EE8F
:101AB000A88AD4ED030AB4EEE08AF1EE10FA01DD53
:101AC000B0EE608A18EE900AB0F17C5F05DAF0EEB5
:101AD000000A68EEA00A20EE888A60EE0B0A80EE0B
:101AE000AA0AF0EE408A08F083F860EE089AB0EE99
:101AF000680A08F04DFF20EE08AAD5ED000AB0EE06
:101B0000490A07F053FAE16F3220B1FBF0F200FB13
:101B10001210F0EE408A20BB18EE100AFFF7C8F84A
:101B200006460F4618EE900AFFF7C2F804460D4627
:101B30001AEE100AFFF7BCF88046894619EE900AA3
:101B4000FFF7B6F80A468DE8050304AB2EA283E83A
:101B5000F0004FF4807108A807F086FA08A80DF08D
:101B60009BF8B0EE681AF0EE4A0AB0EE690A4BB084
:101B7000BDEC088BBDE8F04F00F03ABBB000002090
:101B8000C4020020B802002000003443DB0F4940AB
:101B9000180100205BB5BCBABD5D20CEF3B2EE28C3
:101BA000252E33662C252E33662920BEE0C0EB3A65
:101BB000252E336620C4BFB1EABDC73A252E316653
:101BC00020B5B1C7B0BDC73A252E31660D0A000059
:101BD000000000205BB5BCBABD5D20B5BDB4EFC44C
:101BE000BFB1EAA3ACBABDCFF2BFD8D6C63A252E54
:101BF00033660D0A00000000000000000000B4433E
:101C000000003443000034C35BB5BCBABD5D20BFE7
:101C1000D8D6C6CAE4B3F620583A252E33662059E2
:101C20003A252E3366205A3A252E336620BBF9B466
:101C3000A1CBD9B6C83A252E33660D0A00000000A4
:101C4000CEB00BF069F8DFF85482954E49F6404B60
:101C500000274C900A214CA80DF0E4F97068584513
:101C600001DA401C706001F02BFC02F0EBF8044636
:101C7000B16B6420B1FBF0F200FB121010B905F05B
:101C80009DF9F46398F8000000287CD001F012F967
:101C9000306CC822401CB0FBF2F1306402FB110032
:101CA00000286ED198F80000012802D0022823D025
:101CB00064E07C480068FEF7FBFFDFF8EC91044627
:101CC0000D46D9F80400FEF7F3FFCDE90001D9F87D
:101CD0000000FEF7EDFF8A46CDE90445DDE900127C
:101CE0008146CDE90212CDE9009A70A24FF48071CD
:101CF0000CA807F0B9F941E06A480068FEF7D8FF80
:101D0000DFF8A49104460D46D9F80400FEF7D0FF91
:101D1000CDE90601D9F80000FEF7CAFFCDE90401BC
:101D20006F480068FEF7C4FFDFF8B891CDE9020103
:101D3000D9F80400FEF7BCFFCDE90001D9F8000096
:101D4000FEF7B6FF8A46CDE90A45DDE90612CDE980
:101D50000812DDE90412CDE90612DDE90212CDE92F
:101D60000412DDE900128146CDE90212CDE9009AA4
:101D70005D4A4FF480710CA807F076F90CA80CF0BE
:101D80008BFF19E0FFE7307828B15848007810B190
:101D9000FFF7E2FD10E05648007828B101F012FB91
:101DA00052480770777007E09FED520AB0EE401A74
:101DB000F0EE400A00F01CFA4F4850490068884293
:101DC00004DD4F48D0F80C02012805D000231A4644
:101DD0001946184600975AE0DFF828914B46D9ED8E
:101DE000020A99ED000A03F00DFF00EE100A464DBD
:101DF000B8EEC00A83ED010A2B46D5ED020A95ED37
:101E0000000A03F03DFF00EE100A404CB8EEC00A95
:101E100083ED010AD4ED020A94ED000A03F06EFF8F
:101E200000EE100A3A4BB8EEC00A84ED010AD3ED79
:101E3000020A93ED000A03F09FFF00EE100A40F241
:101E4000DC50B8EEC00A83ED010A04F07BF931489A
:101E50000078F0B9009793ED010AB1EE400ABDEEAB
:101E6000C00A10EE103A94ED010ABDEEC00A10EE61
:101E7000102A95ED010AB1EE400ABDEEC00A10EE3F
:101E8000101A99ED010ABDEEC00A10EE100A06F014
:101E900095F8B06B401CB063DCE600000C0200203B
:101EA00018010020B0000020B80200205BB1E0B6AD
:101EB000D35D20C1ECBABDD5DFC4A3CABD202D209F
:101EC000CEBBD6C328252E32662C252E326629207D
:101ED000BABDCFF2252E3166A1E30D0A0000000045
:101EE00000000020C402002060230108000100203F
:101EF00048000020000000000800002000002041F1
:101F000000804142140B0020280B00203C0B0020D5
:101F1000500B002039000020FEE700003648B5EEE7
:101F2000003A3C4AD0ED001A344890ED001A34488B
:101F300071EEC13AD0ED000A324873EEA03A90ED4E
:101F4000000A314873EEC03A90ED002A2F48D0EDD8
:101F5000002A2F4832EE222AF6EE002A22EE222A0A
:101F600071EE812A12EE101A72EEA02A914272EEE0
:101F7000802A62EE832A23EE833AC0ED052A80EDA3
:101F8000063A10DDF1EE611A31EEC11A71EE200A47
:101F900030EE800AF1EE000A62EE200A80EE201A8E
:101FA00080ED071A03E09FED1C0A80ED070A9FED04
:101FB0001B0AD0ED0B0A60EE801ADFED190A42EE23
:101FC000A01AC0ED0B1A90ED0C1A21EE001A03EEC8
:101FD000201A80ED0C1A90ED0D2A22EE000A90EDE9
:101FE000072A02EE200A80ED0D0AC0ED051A80EDE9
:101FF000061A80ED070A7047140B0020280B0020FA
:102000003C0B0020500B00206400002060000020EA
:10201000180100200AD7233C000000003333333F6F
:102020009A99993E2DE9F04190B001F00BFF0026FE
:10203000DFF868800746354605EB450000EBC50133
:1020400008EB810494F82800B0B1606A47F230517F
:10205000381A884210D9234611A24021684607F059
:1020600003F868460CF018FE002084F82800134896
:102070004179491E4171761C6D1C0A2DDCDB002E56
:1020800008DD33460EA24021684606F0EDFF6846A3
:102090000CF002FE10B0BDE8F081000098100020A6
:1020A0005BB9E3B2A55D20D2C6B3FDC0EBCFDFD0F4
:1020B000A1B3B53A2025730D0A0000009801002055
:1020C0005BB9E3B2A55D20D2C6B3FDC1CB202564C8
:1020D00020C1BEC0EBCFDFD0A1B3B50D0A00000018
:1020E00038B5002000906B460122752168200BF066
:1020F0006FF89DF8000068280CD0BFF34F8F1C4884
:1021000001681C4A01F4E06111430160BFF34F8F85
:1021100000BFFDE70BF002FA002828D178200BF071
:1021200089FE78200BF026F9C8200BF043FE0AF058
:1021300061FA114804460BF0ADF80546E01C0BF0BF
:10214000A9F845EAC005A01D0BF0A4F845EA8010E7
:1021500080B20AF001FC40F273100AF023F9C820A3
:102160000AF062FB0CF020FC01200BF049FD38BDA9
:102170000CED00E00400FA05CA00002070470000E2
:1021800070B5194C04F12000E278011D2AB980EDE8
:10219000000AC1ED000A0122E270A278002500EBDE
:1021A000820301EB820283ED000AC2ED000AA570F2
:1021B00090ED000AD1ED000A20EE000A00EEA00A20
:1021C00008F0AEFC10EE100A0849884201DD657087
:1021D00007E06078401CC0B26070042801D3002082
:1021E00070BD012070BD00000C020020CDCC4C3D24
:1021F00000B5B0EE0C3A05F097FF2A482C4B2D495C
:10220000D0ED002A90ED012AD0ED020A264832EEE8
:10221000220A32EEC22AD0ED001A2448B0EE401A4B
:10222000F0EE422AD0ED003A2348244A71EEA31A78
:1022300000EEE10A40EEE12A00EEA11A00EEA12A2A
:10224000F8EE0C1A83ED020AC1ED022A80ED021AA3
:1022500082ED022AB0EE431AF0EE610A0CF004FDA2
:1022600083ED020A91ED020AB0EE431AF0EE610A24
:102270000CF0FAFC81ED020A90ED020AB0EE431A6E
:10228000F0EE610A0CF0F0FC80ED020A92ED020A19
:10229000B0EE431AF0EE610A0CF0E6FC82ED020AA1
:1022A00000BD0000080B002064000020600000203A
:1022B000140B0020280B00203C0B0020500B0020AA
:1022C00030B585B01221684600F064F828B115A138
:1022D0001648FEF7AFF816A020E0144D00241C3578
:1022E000684655F82410FEF78AF850B1641C042C97
:1022F000F6DB15A20A210D4803AB06F0B5FE14A0CB
:1023000006E0631C19A20A21084806F0ADFE19A0D8
:102310000CF0C2FC05480CF0BFFC1DA00CF0BCFC8E
:1023200005B030BD4341523000000000B401002030
:102330005B49445D20CAB9D3C3C4ACC8CF49443A51
:1023400020434152300D0A004341522573000000E2
:102350005B49445D20CAB9D3C34D4143B5D8D6B714
:10236000C9FAB3C949443A2000000000434152254C
:10237000640000005B49445D20B8F9BEDD4D414377
:10238000B5D8D6B7B7D6C5E449443A200000000016
:102390000D0A000070B504460D461BA00CF07CFC35
:1023A0001F4800264FF4007106801E48FDF7EDFF20
:1023B00040F6B8321CA11DA000F09CFB08B11FA084
:1023C0001EE024A11748FDF7EBFFC0B100220C303E
:1023D0006D1E01E0A154521CAA4204D2815C222944
:1023E00001D00029F6D1A6541DA00CF055FC2046C2
:1023F0000CF052FC09A00CF04FFC002070BD1EA098
:102400000CF04AFC012070BD5B4D41435D20BBF1E7
:10241000C8A14D4143B5D8D6B72E2E2E0D0A0000C7
:102420000C010020F00C00204F4B000041542B43C6
:1024300049505354414D41433F0000005B4D4143DF
:102440005D20BBF1C8A14D4143B5D8D6B7CAA7B0EE
:10245000DC0D0A002B4349505354414D41433A008F
:102460005B4D41435D20BBF1C8A1B5BD4D4143B5B6
:10247000D8D6B73A200000005B4D41435D20BDE255
:10248000CEF64D4143B5D8D6B7CAA7B0DC0D0A0089
:1024900010B5A2B026A00CF0FFFB03F0ABFD4FF48B
:1024A0007A7001F0B3FB40F6B834224626A127A08B
:1024B00000F020FB08B126A025E0FFF701FF03F0A4
:1024C00099FC224620A129A000F014FB08B12AA003
:1024D00019E02DA000902FA331A2802101A806F0C1
:1024E000C3FD44F6206218A101A800F003FB08B167
:1024F00030A008E000F01AF908B132A003E000F0C3
:1025000089F828B133A00CF0C7FB012022B010BD20
:1025100035A00CF0C1FB3E480CF0BEFB09A00CF04E
:10252000BBFB01F08FFC3A491C3988600020EDE7C5
:10253000BFAACABCB3F5CABCBBAF4553503832368C
:10254000362E2E2E0D0A00004F4B00004154000085
:1025500045535038323636CEDECFECD3A6A3ACC7C7
:10256000EBBCECB2E9C1ACBDD30D0A0041542B4326
:10257000574D4F44453D3100C9E8D6C3C4A3CABD39
:10258000CAA7B0DC0D0A0000313233343536373893
:10259000000000005869616F6D695F3130313000B3
:1025A00041542B43574A41503D222573222C22256A
:1025B00073220000C1ACBDD357694669CAA7B0DC1D
:1025C0000D0A0000554450B3F5CABCBBAFCAA7B052
:1025D000DC0D0A00B9E3B2A5B3F5CABCBBAFCAA70C
:1025E000B0DC0D0A0000000045535038323636206A
:1025F000554450BACDB9E3B2A5B3F5CABCBBAFB32D
:10260000C9B9A6A3A1D0A1B3B549443A200000009E
:10261000B401002000B5A3B016A00CF03DFB41F2C0
:1026200088321BA11BA000F065FA08B11CA013E0C2
:1026300041F691700090019020A324A2802102A86D
:1026400006F012FD42F2107211A102A800F052FA37
:1026500038B1032805D026A00CF01EFB012023B0C2
:1026600000BD2A490120487029A00CF015FB00206C
:10267000F5E700005BB9E3B2A55D20B3F5CABCBBCA
:10268000AFB9E3B2A5C1ACBDD32E2E2E0D0A00000A
:102690004F4B000041542B4349504D55583D31009C
:1026A0005BB9E3B2A55D20C9E8D6C3B6E0C1ACBD55
:1026B000D3C4A3CABDCAA7B0DC0D0A003139322E7B
:1026C0003136382E33312E323535000041542B430C
:1026D000495053544152543D312C22554450222CE0
:1026E000222573222C25642C25642C300000000048
:1026F0005BB9E3B2A55D20B9E3B2A5C1ACBDD3B36C
:10270000F5CABCBBAFCAA7B0DC0D0A009801002017
:102710005BB9E3B2A55D20B9E3B2A5C1ACBDD3B34B
:10272000F5CABCBBAFB3C9B9A60D0A0000B5A3B0CA
:1027300017A00CF0B1FA41F288321CA11CA000F0E5
:10274000D9F908B11DA015E043F2390141F69070A6
:10275000CDE9000120A324A2802102A806F084FC78
:1027600042F2107211A102A800F0C4F938B1032896
:1027700005D026A00CF090FA012023B000BD2A4914
:102780000120087029A00CF087FA0020F5E700006E
:102790005B5544505D20B3F5CABCBBAF554450C136
:1027A000ACBDD32E2E2E0D0A000000004F4B0000B2
:1027B00041542B4349504D55583D31005B554450D1
:1027C0005D20C9E8D6C3B6E0C1ACBDD3C4A3CABDC1
:1027D000CAA7B0DC0D0A00003139322E3136382E4E
:1027E00033312E343600000041542B4349505354AA
:1027F0004152543D302C22554450222C2225732224
:102800002C25642C25642C30000000005B554450BE
:102810005D20554450C1ACBDD3B3F5CABCBBAFCAF3
:10282000A7B0DC0D0A000000980100205B55445061
:102830005D20554450C1ACBDD3B3F5CABCBBAFB3EA
:10284000C9B9A60D0A0000002DE9FC41644C654E93
:102850002088C82809D9643880B2642531182A46EE
:102860003046FDF76BFD258001E000287AD02788EF
:1028700000255C48A046F55504462E4601E0001DA3
:10288000761C59A1FDF78CFD0028F8D1012E04DD3E
:102890003946204604F0D0FF71E053A12046FDF7F1
:1028A0007FFD060047D052A00CF0F6F9009501AB71
:1028B0006A4656A130460195FDF7D4FD022822D084
:1028C00055A00CF0E9F92C213046FDF787FD0700F3
:1028D00055D02C21781CFDF781FD06004FD03A2100
:1028E000701CFDF77BFD040049D0781CFEF79CF8B6
:1028F0000090701CFEF798F801900099601CA1B13F
:10290000012915D03BE03A213046FDF767FD50B173
:10291000019840F2FF31401E884230D348A000BFEA
:102920000CF0BAF92BE04CA0FAE705F06BF926E0C1
:1029300004F000FC23E04FA12046FDF731FD18B163
:10294000204604F02BFE1AE020785B280BD07B2871
:102950003FD04BA12046FDF723FD40B1204604F0B7
:10296000CFFD0CE012E0204604F014FD07E046A184
:102970002046FDF715FDC0B1204605F07BF8A8F80C
:1029800000504FF400711748FDF7FFFC01F05AFAB0
:10299000404D044642F210716869201A884202D9FB
:1029A000FFF740FB6C61BDE8FC813BA00CF074F9C3
:1029B0003FA00CF071F9204606E0A04203D910F8C0
:1029C000011C2B2907D0401C41A1FDF7E9FC002880
:1029D000F3D12046ACE73FA00CF05EF9F9E7000028
:1029E0000C010020F00C00202B4950440000000096
:1029F0005B576946695D20BCECB2E2B5BD2B49501E
:102A000044B8F1CABDCAFDBEDD0D0A002B495044D1
:102A10002C25642C25643A005B576946695D20BD0E
:102A2000E2CEF62B495044B8F1CABDCAA7B0DCA328
:102A3000ACB3A2CAD4B1B8D3C3BDE2CEF60D0A007E
:102A40005B576946695D20CAFDBEDDB3A4B6C8CE3A
:102A5000DED0A70D0A0000005B576946695D20CEF5
:102A6000B4D5D2B5BDC3B0BAC5B7D6B8F4B7FB0DAF
:102A70000A000000464F524D4154494F4E3A000063
:102A80004354524C3A000000544F504F4C4F47595A
:102A900000000000980100205B576946695D20CE68
:102AA000B4D6AACAFDBEDDB8F1CABD0D0A00000049
:102AB0005B576946695D20B3A2CAD4B6E0D6D6BDDD
:102AC000E2CEF6B7BDCABD2E2E2E0D0A00000000C4
:102AD000495044005B576946695D20D5D2B5BDB108
:102AE000BBB8C9C8C5B5C42B495044B8F1CABD0D5F
:102AF0000A0000002DE9F04717468A46044601F017
:102B0000A1F9DFF8F48006460025A8F800504FF43C
:102B100000713A48FDF739FC39480068406839A02F
:102B20000CF0BAF820460CF0B7F83BA00CF0B4F863
:102B30002046FDF75DFC82B24FF47A794B46214680
:102B40002F4802F037FE4B46022233A12C4802F0F8
:102B500031FE324CDFF8A49034E000BFB8F800003A
:102B600000282CD009F800502DA12448FDF718FCAE
:102B700048B130A00CF090F801F064F9A060257124
:102B80000320BDE8F08751461C48FDF709FC40B121
:102B90002EA00CF081F801F055F9A06025710020FD
:102BA000EFE731A11548FDF7FBFB40B130A00CF079
:102BB00073F801F047F9A06025710120E1E70320D7
:102BC00001F024F801F03EF9801BB842C6D3207909
:102BD000401C20712CA00CF05FF808480CF05CF849
:102BE0000DA00CF059F82079052803D92CA00CF081
:102BF00053F825710220C4E70C010020F00C0020DE
:102C0000780600205B455350383236365D20B7A237
:102C1000CBCD3A20000000000D0A000098010020F2
:102C2000414C524541445920434F4E4E4543544533
:102C3000440000005B455350383236365D20D2D117
:102C4000C1ACBDD3D7B4CCAC0D0A00005B4553502A
:102C5000383236365D20CAD5B5BDD4A4C6DACFEC3D
:102C6000D3A60D0A000000004552524F520000004A
:102C70005B455350383236365D20B4EDCEF3CFECA1
:102C8000D3A60D0A000000005B455350383236369B
:102C90005D20B3ACCAB1A3ACCAD5B5BD3A20000023
:102CA0005B554152545D20C1ACD0F8B3ACCAB1A35E
:102CB000ACBFC9C4DCD0E8D2AABCECB2E9D3B2BC88
:102CC000FEC1ACBDD30D0A002DE9F04F2DED068BF2
:102CD00097B0B0EE628AF0EE42AAF0EE618AB0EEF2
:102CE000419AF0EE609AB0EE40AA13EE100AFDF79A
:102CF000DFFF06460F4618EE100AFDF7D9FF04461F
:102D00000D461AEE900AFDF7D3FFCDE9020118EE49
:102D1000900AFDF7CDFFCDE9000119EE100AFDF78D
:102D2000C7FF82468B4619EE900AFDF7C1FF804629
:102D300089461AEE100AFDF7BBFF0A460AA981E888
:102D4000F000DDE90234CDE90834DDE90034CDE9F5
:102D500006348DE8050F3E4B3EA28021474806F021
:102D600083F93B4C1C3C207840B9FFF7DFFC28B1CD
:102D7000012017B0BDEC068BBDE8F08F3F48FDF792
:102D800037FB02463EA10EA806F086F90646002053
:102D9000A046A0713F4C81464FF4007A4FF47A77F9
:102DA000A4F8009051463C48FDF7EFFAB2B2642314
:102DB0000EA93A4802F0FEFC032000F027FF01F0C4
:102DC00041F8054609E0208820B135A13248FDF7D9
:102DD000E7FA38B9032000F019FF01F033F8401B7F
:102DE000B842F0D32548FDF703FB82B264232349A0
:102DF0002A4802F0DFFC642302222AA1274802F0BD
:102E0000D9FC032000F002FF208880B126A12248CF
:102E1000FDF7C6FA58B101F015F8C8F80800A4F893
:102E2000009051461C48FDF7B0FA0020A1E70320AE
:102E300000F0ECFE98F80610491CC9B288F806109C
:102E40000229ADD388F8009088F8019090E700003F
:102E5000B401002025733A252E32662C252E3266C9
:102E60002C252E31662C252E31662C252E33662CF2
:102E7000252E33662C252E33660000001810002006
:102E800041542B43495053454E443D302C25640D4D
:102E90000A0000000C010020F00C00207806002041
:102EA0003E0000000D0A000053454E44204F4B00E9
:102EB00072B6FEE70F48007800281AD0012803D028
:102EC000022816D100F020B80B48007820B10B483A
:102ED000007808B1FEF740BD0948007808B100F05D
:102EE00071BA9FED080AB0EE401AF0EE400AFFF703
:102EF0007FB970470C02002018010020000100205B
:102F000048000020000000002DE9F04700242DEDCE
:102F10000E8B2646FD4F9FEDFE8AFE4D04EB4400CE
:102F200000EBC40007EB800090F8281019B1FA49B3
:102F3000FDF765FA18B1641C0A2CEFDB0DE004EB19
:102F4000440000EBC40017EB800406D000F07AFFC9
:102F5000616A401AB0F5FA6F10D9B0EE481AF0EE77
:102F6000480AB0EE480AFFF743F985ED0A8A85ED75
:102F70000B8A6E70BDEC0E8BBDE8F087D4ED059A20
:102F8000E648D4ED068AB0EEE90A10EE101A814246
:102F900001DAF0EE489AB0EEE80A10EE101A81421B
:102FA00001DAF0EE488AB0EE690AF0EE680AFFF73F
:102FB000E7F894ED080A82469FEDD9DA20EE0D0A73
:102FC000DFEDD8BA80EE2BAAB0EE4A0A06F010FE6A
:102FD00094ED03BAD5ED010AA84600EE80BAB0EE32
:102FE0004A0A07F0D5FCD5ED020A00EEC0BAB0EEF1
:102FF0004A0A07F0CDFC94ED049AD5ED010A00EEE3
:10300000809AB0EE4A0A06F0F3FDD5ED020A00EE12
:10301000809A94ED080AD5ED030A30EE20AADFED80
:10302000C2AAC24902E000BF3AEE6AAA1AEE100A2A
:103030008842F9DA02E000BF3AEE2AAAB5EEC0AA49
:10304000F1EE10FAF8D3BA48DFF8E892BA4D90EDF5
:10305000000ABA4E7BEE40CA90ED010A39EE40BA42
:1030600099ED000A3AEE400A02E000BF30EE6A0A2B
:1030700010EE100AA842F9DC02E000BF30EE2A0A86
:1030800010EE100AB042F9D82CEEAC0A0BEE0B0A87
:1030900007F046FDB0EE409A0027F0EE00DA9FED13
:1030A000A8CABAF1000F7CD098ED070A60EE2D0A8D
:1030B000F4EEC90AF1EE10FA23DCF0EE080A20EE75
:1030C000200AB4EEC90AF1EE10FA6ADDF0EE690AE0
:1030D000B0EE680A06F048FCF0EE400AB0EE4B0A8B
:1030E000B0EE60EAF0EE6C0A06F03EFC3EEE400AFE
:1030F0009449B0EEC00A10EE100A08449249884282
:103100004FD398ED0C0AD9ED000A012769EE809A99
:1031100068EE808A94ED080A4C4630EE600A01E0C1
:1031200030EE6A0A10EE100AA842F9DC02E000BF95
:1031300030EE2A0A10EE100AB042F9D860EE0D0AFD
:10314000B0EEC00A10EE100A804980EEABEA884269
:103150001BDDB0EE4E0A06F04BFD60EE29AAB0EE84
:103160004E0A07F015FC48EEC0AAB0EE4E0A07F072
:103170000FFC60EE29DAB0EE4E0A06F039FD48EE9B
:1031800080DAF0EE6A9AF0EE6D8A98ED070AB4EEF6
:10319000C09AF1EE10FA51DDDFED6D0A19EE101A4A
:1031A00000E04CE04FF07E52914206DA39EE400AE0
:1031B0009FED681A20EE018A05E019EE101A91427F
:1031C00001DB9FED658A98ED060A70EE88AADFEDB7
:1031D000630A20EE208AF0EE6C0AB0EE4B0A06F08D
:1031E000C3FBD4ED000A60EE8D0A80EEAB1A70EEE0
:1031F00041BAB0EE6B0A06F0FBFC2AEE899A60EE4B
:1032000009AAB0EE6B0A07F0C3FB20EE099A2AEE7A
:10321000AA0A09EE090A07F083FCB4EEC80AF1EE27
:1032200010FA07DD6AEE880AC0EE80AA69EE080A85
:1032300080EE809A79EEAA9A78EE898A46E098ED37
:103240000A0AD8ED040AD8ED051A3CEEC02A98ED1A
:103250000B0A20EEAC1A60EE8B0A3BEE400A19EE28
:10326000100A01EE821A41EE800AB7EE000AB0F1B0
:103270007C5F05DA69EE2D1A9FED390A01EE8C0AA2
:1032800061EE008A20EE808AF0EE680AB0EE480A0D
:1032900006F06AFBD9ED000A60EE8D0A80EEAB1AEB
:1032A00030EE419A28EEA80A08EE080A07F038FC2A
:1032B000B0EE408AB0EE490A06F09AFC60EE089A39
:1032C000B0EE490A07F064FB60EE088A29EEA90A0D
:1032D00008EEA80A07F024FCD8ED060A4446B4EE2E
:1032E000E00AF1EE10FA07DD29EEA01A68EEA00A56
:1032F000C1EE009AC0EE808A0FB99FED1ACAF0EEB7
:103300004A0A99ED000A05F051FE2DE098100020C0
:10331000000000000C020020501200200AD7233DBC
:10332000DB0F4940000034430000B4430000B443C5
:10333000B8020020B000002000003443000034C375
:10334000CDCC4C3F25F0B6C006DE66010000204122
:10335000CDCC4C3DCDCCCC3D9A99193ECDCCCC3E7C
:10336000CDCC4C3E9A99993F20EE0C1AF0EE680AAB
:10337000B0EE690AFEF73CFFC4ED0ACA84ED0BBA51
:10338000F8E500001FB56946009007200290012073
:1033900001900B4800F062F9094800F05DFB1E2126
:1033A000074800F003FB064800F000FA800503D54B
:1033B000034800F0FDF984B204B0204610BD0000BF
:1033C000D002002010B4334C31489FED341A94EDF4
:1033D000000A037830483249324AF1EE400A092B9C
:1033E00024D2DFE803F02305080B0E13181B1E0080
:1033F00080ED000A0CE080ED000A04E080ED001A88
:1034000001E0C0ED000AC1ED000A1FE0C0ED000AB6
:1034100081ED001A1AE0C0ED000A04E080ED001A08
:1034200001E080ED000A81ED000A0FE01E4B80ED07
:10343000001A81ED001A1B78DFED1C0A012B18D051
:103440001B4B1B78012B19D082ED001AD0ED000A1E
:103450009FED181A80EE810A80ED000AD1ED001A66
:10346000C1EE810AC1ED000A92ED001A10BCFEF710
:10347000BFBE80EE201A9FED100A03E080EE201AF6
:103480009FED0E0A21EE000A82ED000ADEE7000041
:10349000490000203C0000204C00002000000000FB
:1034A00050000020540000206C0000200000FA436F
:1034B0006D00002000007A44DB0FC93FDB0FC9BF5D
:1034C00010B502202DED048B04F092FC3B4C2060E3
:1034D000032004F08DFC6060042004F089FCA060EF
:1034E000052004F085FC3649E060097806291DD2E4
:1034F000DFE801F04E0355554E552168494200EE74
:10350000101A6168F8EEC09A494200EE101A00BF26
:10351000A168B8EEC09A494200EE101AD0F100003E
:10352000F8EEC08A00EE100AB8EEC08A9FED250AB8
:10353000254829EE801AD0ED000A244861EE201AB1
:1035400090ED001A224881EE812A69EE001A61EEA0
:10355000A01A80ED002A81EE812A68EE801A1D48AB
:1035600028EE000A61EEA01A20EE200AC0EE010A41
:1035700080ED002A184881EE812A80ED002A174844
:10358000C0ED000ABDEC048BBDE81040FEF7C6BCE0
:1035900094ED000AF8EEC09A94ED010AB8E794EDB4
:1035A000000A6168F8EEC09A494200EE101AB8EEBF
:1035B000C09A94ED020AF8EEC08AB3E70810002022
:1035C000390000200000C8425C00002058000020A4
:1035D000140B0020280B00203C0B0020500B002077
:1035E00010B5144800F038FA0A21124800F0DEF94C
:1035F0000820FFF7C7FEFDF74EFB9FED0F1B53ECB6
:10360000112BFDF7C5FA9FED0E1B53EC112BFDF7A7
:10361000BFFA9FED0D1B53EC112BFDF7B9FA9FED8F
:103620000C1B53EC112BFDF7B3FAFDF754FB00EE26
:10363000100A10BDD00200206666666666660A4003
:1036400000000000000026407B14AE47E17AF03F06
:10365000000000000000303F7047000078B50024F3
:10366000009490F83C20012A19D0012280F83C20D7
:103670000A6807230568092A13D9EE680A3A02EB9B
:10368000420293409E43EE600B788A680A3B03EB4C
:1036900043039A400368DD682A43DA6010E00220A1
:1036A00078BD2E6902EB420293409E432E610B7857
:1036B0008A6803EB43039A4003681D692A431A6131
:1036C0004A681F23072A13D205686E6B521E02EB4D
:1036D000820293409E436E630B790A885B1E92B20E
:1036E00003EB83039A4003685D6B2A435A6327E028
:1036F00005680D2A12D22E6BD21F02EB8202934074
:103700009E432E630B790A88DB1F92B203EB83037F
:103710009A4003681D6B2A431A6311E0EE6A0D3A62
:1037200002EB820293409E43EE620B790A880D3BC6
:1037300092B203EB83039A400368DD6A2A43DA629C
:10374000164B0568144A9D4206D10D68122D03D10F
:10375000556845F48005556005689D4218D10B6891
:10376000102B01D0112B13D1536843F40003536085
:10377000096810290CD10A490A4A0968B1FBF2F11B
:1037800001EB8101490000E0491E00910029FBD1B5
:1037900080F83C40002078BD00230140002001401B
:1037A0002000002040420F0070477047006C7047B7
:1037B0000068C06C704770B50446006806684568CC
:1037C00016F0020F05F020012AD049B3216CC9067A
:1037D00003D4216C41F400712164816811F0405FD1
:1037E00017D1217EA9B9C16A11F4700F02D0816886
:1037F00049050ED4416821F020014160206C20F47D
:1038000080702064206CC00403D4206C40F0010060
:1038100020642046FFF7C8FF21686FF0120008609F
:1038200016F0040F05F0800132D089B3206CC00679
:1038300003D4206C40F4005020642068816811F4A7
:10384000401F1ED1816B11F4401F02D081684905D1
:1038500017D44168490514D4816811F0405F10D134
:10386000217E71B9416821F080014160206C20F413
:1038700080502064206CC00503D4206C40F001000F
:1038800020642046FFF7E8FE21686FF00C00086016
:1038900016F0010F05F040010FD071B120680068EB
:1038A000C0070AD0206C40F480302064204600F02D
:1038B00043F821686FF00100086016F0200F05F052
:1038C00080610ED000290CD0606C40F00200606472
:1038D00020686FF0200505602046FFF766FF20682E
:1038E000056070BD70B504004FF0000503D0206C7A
:1038F000002610B107E0012070BD204600F01EF840
:10390000666484F83C60206CC00610D4206C20F4FF
:10391000885040F0020020642046FDF7E5FE666412
:10392000206C20F0020040F00100206400E001253E
:1039300084F83C60284670BD7047000010B586B022
:10394000044614216846FCF720FD1549206888428A
:1039500023D114480021026842F48072026000689A
:1039600000F4807005900F481438026842F002029B
:103970000260006800F00200059003200090CDE98D
:1039800001016946084800F053F90022114612204F
:1039900000F0F2FA122000F0E1FA06B010BD0000CB
:1039A0000020014044380240000402402DE9F0416B
:1039B000044600680D4681684FF0000749050BD5A5
:1039C0008068C00508D5206C40F02000206484F891
:1039D0003C700120BDE8F08100F034FA064613E0A7
:1039E000681C11D025B100F02DFA801BA8420BD91C
:1039F00020680068800707D4206C40F00400206431
:103A000084F83C700320E5E7206800688007E7D56C
:103A100021686FF012000860206C40F40070206490
:103A20002068816811F0405F13D1217E89B9C16A95
:103A300011F4700F02D0806840050AD4206C20F485
:103A400080702064206CC00403D4206C40F001001E
:103A500020640020BEE7000018B50021009190F816
:103A60003C20012A07D0012280F83C20026893689C
:103A7000DB0702D011E0022018BD936843F0010378
:103A800093602E4A2E4B1268B2FBF3F202EB420215
:103A900000E0521E0092002AFBD102689368DB0707
:103AA00042D0036C40F20164A34343F48073036487
:103AB00053685B0505D5036C23F4005343F480532E
:103AC0000364036CDB0404D5436C23F006034364F6
:103AD00000E0416480F83C101A496FF02203136043
:103AE00049680068CA06184906D0884224D181680E
:103AF00011F0405F13D01FE08842F8D0134A904283
:103B000003D1D1F80423D206F1D0114A904213D147
:103B1000D1F8041301F01F011029E8D30CE08168EB
:103B200041F08041816007E0016C41F010010164C7
:103B3000416C41F001014164002018BD20000020CB
:103B400040420F00002301400020014000210140BD
:103B5000002201402DE9F0410446876D00F072F922
:103B6000064694F835000025022806D080206065BE
:103B700084F834500120BDE8F0812068016821F00C
:103B8000160101602068416921F080014161206CCB
:103B900008B9A06C20B12068016821F0080101601B
:103BA0002068016821F0010101600CE000F04AF991
:103BB000801B052807D920206065032084F8350084
:103BC00084F83450D7E720680068C007EED194F835
:103BD0005C103F208840B860012084F8350084F8EC
:103BE00034500020C7E790F83510022903D0802117
:103BF000416501207047052180F835100068016893
:103C000021F00101016000207047000070B50446FA
:103C100000F018F90546601C02D0044800780444FE
:103C200000F010F9401BA042FAD370BD1400002030
:103C30002DE9F84FDFF8BCA10022012503264FF043
:103C40000F090AF1040BAAF1040E00BF0B6805FA74
:103C500002F42340A34270D10F7907F00307012F2C
:103C600001D0022F16D187684FEA420806FA08FCF5
:103C700027EA0C07D1F80CC00CFA08FC4CEA070C38
:103C8000C0F808C04768A7430C79C4F300149440F7
:103C90003C4344600C79E443A4070AD0C4684FEA6B
:103CA000420C06FA0CF7BC438F6807FA0CF727435F
:103CB000C7600C7904F00304022C12D1D40800EB85
:103CC000840CDCF820405707FF0E09FA07F824EAB5
:103CD0000804D1F8108008FA07F848EA0408CCF87C
:103CE000208004684FEA420C06FA0CF7BC430F79B7
:103CF00007F0030707FA0CF7274307604C6814F432
:103D0000403F70D03C4C276847F4804727602468C8
:103D100022F0030704F480440094384C07EB040CB1
:103D2000DCF8084897074FEA177809FA08F7BC4308
:103D3000334FB84202D1002724E054E0314FB8425B
:103D400001D101271EE0304FB84201D1022719E00E
:103D50002E4FB84201D1032714E02D4FB84201D1B4
:103D600004270FE02B4FB84201D105270AE02A4F64
:103D7000B84201D1062705E0284FB84201D10727F4
:103D800000E0082707FA08F72743CCF80878DAF8A4
:103D900000405746D1F804C09C435FEACC2C00D5C4
:103DA0001C433C60DBF800405F46D1F804C09C43F4
:103DB0005FEA8C2C00D51C433C60DEF8004077465F
:103DC000D1F804C09C435FEA8C3C00D51C433C60A6
:103DD000084F083F3C68D1F804C09C435FEACC3CE4
:103DE00000D51C433C60521C102AFFF42FAFBDE8E5
:103DF000F88F0000083C0140443802400030014088
:103E0000000002400004024000080240000C024092
:103E1000001002400014024000180240001C024042
:103E20000069084000D001207047426921EA02037E
:103E30000A4043EA0241816170470AB181617047DB
:103E40000904FBE701488068704700001400002067
:103E50000248816802781144816070471400002094
:103E60000B4810B5016841F400710160016841F42C
:103E700080610160016841F480710160032000F0FD
:103E80009BF8012000F006F800F050F8002010BD6B
:103E9000003C024030B505461F4887B00024016849
:103EA00041F020010160006806A900F020000090A8
:103EB00001A800F02DF90498A8B100F049F94000DC
:103EC0001649174AB0FBF1F11648491E026040F24C
:103ED000E732C0E90324C0E90114846100F0B4FBB7
:103EE000040003D015E000F033F9E9E70D4800F0D5
:103EF00007FC04000DD1372000F030F8102D07D258
:103F000000222946372000F037F80748056000E016
:103F1000012407B0204630BD4038024040420F0027
:103F200000140040C0060020180000200A4808B510
:103F3000016841F480410160006800F48040009015
:103F40000548001F016841F080510160006800F0E1
:103F50008050009008BD000044380240002809DB72
:103F600000F01F02012191404009800000F1E02093
:103F7000C0F8001170470000F0B40E4B1B680C46EF
:103F8000C3F30223C3F10705042D00D90425191D2D
:103F9000072901D2002300E0DB1E012606FA05F105
:103FA000491E214099409E40761E16403143F0BC88
:103FB00005F0B1B80CED00E0064900F00702086812
:103FC0004FF6FF03184040EA0220034A10430860FE
:103FD000704700000CED00E00000FA052DE9F04705
:103FE0000E46050065D0DFF81481D8F80000F7B25E
:103FF00000F00700B04207D288F80070D8F800003F
:1040000000F00700B04254D128683D4C810712D51A
:10401000400703D5206840F4E0502060287800076E
:1040200003D5206840F4604020602068A96820F033
:10403000F000084320602878C0072DD03049686818
:104040000839012812D0022813D0032811D009689A
:10405000890700292DDA216821F00301014321603D
:10406000FFF7F0FE814641F2883A0EE009688903C5
:10407000EFE709688901ECE7FFF7E4FEA0EB09012F
:10408000514502D90320BDE8F0872068696800F037
:104090000C00B0EB810FEFD1D8F80010404601F0D2
:1040A0000701B14207D90770006800F00700B0426D
:1040B00001D00120E7E72878400705D52068E968A6
:1040C00020F4E050084320602878000706D52068D7
:1040D000296920F4604040EAC100206000F058F8EF
:1040E0002168084AC1F30311515CC84006490860C1
:1040F00006480068FFF7CEFE0020C4E7003C0240FF
:10410000083802400C0001082000002018000020A0
:104110000F2202600C4A136803F003034360136824
:1041200003F0F0038360136803F4E053C360126884
:104130004FF4E05303EAD20202610448006800F041
:10414000070008607047000008380240003C024049
:104150000448054900680968044AC1F38221515C9A
:10416000C840704720000020083802401C000108A9
:104170000448054900680968044AC1F34231515CAA
:10418000C840704720000020083802401C00010889
:10419000154810B5006810F00C02144813D01449EB
:1041A000042A0FD0082A0ED10F4C241F226823683E
:1041B00002F03F025B0207D52068C0F38810A0FB25
:1041C000010106E0084610BD2168C1F38811A1FB7A
:1041D00000010023FCF750F82168C1F30141491C9C
:1041E0004900B0FBF1F010BD083802400024F40093
:1041F00040787D012DE9F84F04006ED02078DFF87B
:104200004C93C007A9F104054AD009F104000168E4
:10421000C1F38101012908D00068C0F381000228A0
:104220000AD1D9F80000400206D52868800337D5A6
:1042300060680028E1D033E06068B0F5803F10D0BE
:10424000B0F5A02F286810D020F4803028602868AE
:1042500020F4802028606068A8B1FFF7F3FD0646CF
:104260000DE0286840F48030F4E740F480202860B6
:10427000F7E700BFFFF7E6FD801B642873D82868C6
:104280008003F7D50CE0FFF7DDFD064605E000BF33
:10429000FFF7D8FD801B6428F0D828688003F7D486
:1042A0002078DFF8AC8280074FF0000A3ED5A7489F
:1042B000001D016811F00C0F08D00068C0F38100E8
:1042C00002280BD1D9F80000400207D428688007E3
:1042D00016D5E068012800D112E033E1E068B8B1FA
:1042E0000120C8F80000FFF7ADFD064605E000BF5D
:1042F000FFF7A8FD801B0228C0D828688007F7D5E3
:104300002868216920F0F80040EAC10028600DE02B
:10431000C8F800A0FFF796FD064604E0FFF792FDFF
:10432000801B02281FD828688007F7D42078000750
:1043300022D5864F87486169703771B101210160CC
:10434000FFF780FD064604E0FFF77CFD801B022896
:1043500009D838688007F7D50EE0C0F800A0FFF74D
:1043600071FD064605E082E0FFF76CFD801B022828
:104370007DD838688007F7D42078400768D5DFF803
:10438000CCB100270BF13C0BDBF80000C0000BD4D4
:10439000DBF8001041F08051CBF80010DBF8000092
:1043A000012700F0805000906B4E3068C00510D49B
:1043B000306840F480703060FFF744FD009005E005
:1043C000FFF740FD0099401A022850D83068C00518
:1043D000F6D55E4EA0686C3601280FD005283068EF
:1043E00010D020F001003060306820F00400306010
:1043F000A068B8B1FFF726FD00900FE0306840F0EC
:104400000100F4E740F004003060F7E7FFF71AFD21
:104410000099411A41F28830814266D8306880079D
:10442000F4D50EE0FFF70EFD009007E0FFF70AFD60
:104430000099411A41F28830814256D8306880078D
:10444000F4D42FB1DBF8001021F08051CBF800102C
:10445000A069C8B33D49091D0968C1F3810102295A
:104460004AD00228504607D0C8F8600000E03CE07F
:10447000FFF7E8FC04463BE04746C8F86000FFF75A
:10448000E1FC064605E000BFFFF7DCFC801B0228CC
:104490002BD828688001F7D4D4E907010843A16A22
:1044A0002E4A490802EB0141626A41EA821108433F
:1044B00094F82C1040EA0161C9F800100120386618
:1044C000FFF7C0FC044606E03EE000BFFFF7BAFC81
:1044D000001B022809D828688001F7D534E000BF06
:1044E000FFF7B0FC001B022802D90320BDE8F88FBB
:1044F00028688001F4D427E00128F7D0D9F800001B
:10450000E26900F4800191421CD1226A00F03F016F
:10451000914217D147F6C071626A0140B1EB821F28
:1045200010D1A26A4FF0FF3300F4403103EB520286
:10453000B1EB024F06D194F82C1000F07060B0EB94
:10454000016F01D00120D1E70020CFE704380240FD
:1045500000004742800E4742007000400000FFFF0D
:104560007047704710B590F83C20012A22D00122F4
:1045700080F83C20CA688C6822F4407222434C6860
:1045800022F4806222430C6822F4006222430C6908
:1045900022F4805222434C6922F400522243C9691A
:1045A000002322F480420A4301684A6480F83C30C8
:1045B000002010BD022010BD70B590F83C20012AEB
:1045C00032D0012480F83C40022280F83D2003686C
:1045D0005A689D6822F070060A6832435A60134B8D
:1045E00002689A4214D0B2F1804F11D0104B9A4217
:1045F0000ED0104B9A420BD00F4B9A4208D00F4B63
:104600009A4205D00E4B9A4202D00E4B9A4204D1E8
:10461000496825F080031943916080F83D400021EE
:1046200080F83C10084670BD022070BD00000140BB
:104630000004004000080040000C0040000401405D
:10464000004001400018004010B5040003D094F869
:104650003D0010B107E0012010BD002084F83C00AF
:10466000204600F01FF8022084F83D00211D20683C
:1046700003F04CFE012084F8460084F83E0084F8E4
:104680003F0084F8400084F8410084F8420084F838
:10469000430084F8440084F8450084F83D0000207D
:1046A00010BD000008B5124A01681248914207D1B6
:1046B000016841F480310160006800F4803009E055
:1046C0000D4A914208D1016841F40031016000684F
:1046D00000F40030009008BD084A9142FBD1016807
:1046E00041F480210160006800F48020F2E70000BE
:1046F000004001404438024000440140004801406D
:1047000090F83D10012901D001207047022180F866
:104710003D100168CA6842F00102CA600068114990
:10472000884214D0B0F1804F11D00F4988420ED08A
:104730000E4988420BD00E49884208D00D49884264
:1047400005D00D49884202D00C49884204D18168C5
:1047500001F00701062903D0016841F00101016061
:1047600000207047000001400004004000080040A5
:10477000000C0040000401400040014000180040CF
:1047800070B5044690F83C000025012817D001269A
:1047900084F83C60022084F83D002068826822F0A2
:1047A000770222F47F4282600868502838D00DDCFE
:1047B00020284FD005DC90B3102811D14AE0022008
:1047C00070BD302846D040280AD13BE060282FD069
:1047D00070280DD0B0F5805F03D0B0F5005F12D027
:1047E000012584F83D60002084F83C00284670BD17
:1047F000CB68D1E90121206803F0FDFD20688168C4
:1048000041F0770109E0CB68D1E90121206803F08C
:10481000F2FD2068816841F480418160E1E719E0A0
:10482000CA684968206803F0BBFE5021206806E092
:10483000CA684968206803F0C4FE6021206803F05C
:10484000E4FDCEE7CA684968206803F0A9FE40216C
:104850002068F4E7226801461046F0E72DE9F041B0
:104860000D46040003D094F83D0018B108E0012083
:10487000BDE8F081002084F83C00204600F040F8BC
:10488000022084F83D002068816844F207029143C9
:104890008160211D206803F039FD226890689169CC
:1048A000166A2B68AF69034340F20330814341EA43
:1048B0000721A868EF6908434FF6FC418843E9687F
:1048C00040EA0720014328692F6A000140EA0730C7
:1048D000084369686D6926F0AA0646EA051529436A
:1048E00093602268906154F8460B0162012004F83D
:1048F0001F09E0752076E0762077A0750020B7E7E5
:10490000F0B587B0044614216846FBF73EFD4049E8
:1049100023683F4810390224012503263D4A3E4FB3
:10492000B3F1804F15D0DFF8F4C063453CD1026885
:1049300042F002020260006800F002000590086880
:1049400040F002000860086800F002000590302086
:104950003FE0036843F001030360006800F00100DA
:104960000590086840F001000860086800F0010048
:104970000590086840F0020008600868694600F089
:10498000020005904FF400408DE871001046049538
:10499000FFF74EF908208DE8710004956946384606
:1049A000FFF746F907B0F0BDDFF874C0634514D1D6
:1049B000026842F004020260006800F00400059002
:1049C000086840F002000860086800F002000590E6
:1049D000C0208DE871000494E0E7124FBB42E1D1A2
:1049E000036843F008030360006800F008000590C6
:1049F000086840F0010008600868CDE9006400F034
:104A00000100CDE90440CDE9025669461046C7E7EA
:104A10004038024000000240000402400004004010
:104A200000080040000C004070B590F83E6004465D
:104A300090F83F5090F8423090F84320022021B186
:104A400004290ED0012E1BD114E0012E18D1012B08
:104A500016D184F83E0084F842000122002120682B
:104A600020E0012D0CD1012A0AD184F83F0084F8FE
:104A7000430014E0012D03D1012B01D1012A01D003
:104A8000012070BD84F83E0084F83F0084F84200A5
:104A900084F8430001220021206803F09FFC0122DA
:104AA0000421206803F09AFC2068016841F00101AC
:104AB0000160002070BD70472DE9F0410446006898
:104AC000C66805694FF00007A90713D5B10711D5CE
:104AD000F91E016101202077206880698007204647
:104AE00002D0FFF7E8FF04E000F0ECF8204600F009
:104AF00091F92777680716D5700714D521686FF0EC
:104B000004000861022020772068806910F4407F4B
:104B1000204602D0FFF7CFFF04E000F0D3F8204694
:104B200000F078F92777280715D5300713D52168C5
:104B30006FF008000861042020772068C0698007B2
:104B4000204602D0FFF7B7FF04E000F0BBF8204694
:104B500000F060F92777E80616D5F00614D521682D
:104B60006FF010000861082020772068C06910F4F9
:104B7000407F204602D0FFF79EFF04E000F0A2F83D
:104B8000204600F047F92777E80708D0F00706D05D
:104B900021686FF001000861204600F0A1F92806A5
:104BA00008D5300606D521686FF0800008612046E0
:104BB000FFF7D6FC680608D5700606D521686FF0A9
:104BC00040000861204600F095F9A8060AD5B00615
:104BD00008D521686FF0200008612046BDE8F0414B
:104BE000FFF7BFBCBDE8F081F0B587B004461421E3
:104BF0006846FBF7CAFB2C4F236800262B49022589
:104C0000012403222A48BB421BD10B6843F0100346
:104C10000B600968CDE9024201F0100105914FF4E3
:104C20002061CDE90015049469460746FFF700F8B6
:104C30004FF4C0408DE86100CDE903646946384611
:104C40000CE01C4EB3420DD10B6843F010030B6017
:104C5000096801F01001059160211DE0FEF7E8FFF1
:104C600007B0F0BD144E1548B34209D10B6843F0AC
:104C700002030B60096801F00201059181150BE048
:104C80000F4EB342ECD10B6843F002030B6009688E
:104C900001F0020105917115CDE90015CDE902423F
:104CA00004926946DAE70000000001403038024013
:104CB0000010024000400140004401400004024056
:104CC00000480140704770B5044690F83C0000264B
:104CD0000D4601280FD0012084F83C006AB1042A57
:104CE0001DD0082A2FD00C2A3FD00126002084F89E
:104CF0003C00304670BD022070BD206803F08EFB82
:104D00002068816941F0080181612068816921F092
:104D100004018161206881692A69114311E02068DA
:104D200003F0ACFB2068816941F400618161206877
:104D3000816921F480618161206881692A6941EA81
:104D400002218161D2E7206803F0CEFB2068C169AF
:104D500041F00801C1612068C16921F00401C1610D
:104D60002068C1692A69114311E0206803F0F0FB53
:104D70002068C16941F40061C1612068C16921F402
:104D80008061C1612068C1692A6941EA0221C1616B
:104D9000ACE710B5040003D094F83D0010B107E073
:104DA000012010BD002084F83C00204600F01EF8D1
:104DB000022084F83D00211D206803F0A7FA01209D
:104DC00084F8460084F83E0084F83F0084F84000F0
:104DD00084F8410084F8420084F8430084F84400D9
:104DE00084F8450084F83D00002010BD08B5006837
:104DF0000649884208D10648016841F00101016076
:104E0000006800F00100009008BD000000000140B3
:104E1000443802407047000010B50446022249B1F0
:104E200004290ED0082913D094F84100012816D087
:104E3000012010BD94F83E000128F9D184F83E20ED
:104E40000FE094F83F000128F2D184F83F2008E0F9
:104E500094F840000128EBD184F8402001E084F868
:104E600041200122206803F0B9FA16492068164A49
:104E7000884201D0904203D1436C43F40043436421
:104E80002068884213D0B0F1804F10D00F4988427B
:104E90000DD00F4988420AD00E49884207D090426F
:104EA00005D00D49884202D00C49884204D181685E
:104EB00001F00701062903D0016841F001010160FA
:104EC000002010BD0000014000040140000400402B
:104ED00000080040000C0040004001400018004065
:104EE00000680349884201D1FEF7B2BF7047000055
:104EF000001400407047704770470000F8B5016823
:104F000004460868CA684B6910F00F0F4FF000059F
:104F100059D003F0010602F49077374365D0C107FA
:104F200005D0D10503D5616C41F0010161644107F1
:104F300005D5D90703D0616C41F002016164810796
:104F400005D5D90703D0616C41F004016164010704
:104F500007D502F02001314303D0616C41F0080114
:104F60006164616C00293AD0800604D5900602D5B0
:104F7000204603F073FB20684069616CC0F3801029
:104F8000090700D460B3204603F041FB2068406964
:104F9000400621D52068143050E8001F21F0400160
:104FA00040E80012002AF5D1E06BA8B17249016512
:104FB000E06BFEF718FE002811D0E06B016D01B028
:104FC000BDE8F040084783060FD593060DD520466F
:104FD000BDE8F84003F042BB2046FFF78DFFF8BD67
:104FE0002046FFF789FF6564F8BD266B2023012E5C
:104FF0007ED1C6067CD5D6067AD50868486800906A
:1050000048694FF0020640064DD5E26B10684068D3
:105010004FF480770004000C3AD0A18D814237D93B
:10502000E085D069B8422DD020680C3050E8001FD0
:1050300021F4807140E80012002AF5D12068143074
:1050400050E8001F21F0010140E80012002AF5D1CC
:105050002068143050E8001F21F0400140E80012A1
:10506000002AF5D184F84230256320680C3050E8DE
:10507000001F21F0100140E80012002AF5D1E06B7A
:10508000FEF768FD6663A08DE18D401A81B206E0EF
:10509000A18D8142A8D1D069B842A5D166632046CE
:1050A000FFF729FFF8BDA08DE18D401A81B2E08D98
:1050B0000028F7D00029F5D020680C3050E8002FE8
:1050C00022F4907240E80027002FF5D120681430B8
:1050D00050E8002F22F0010240E80027002FF5D110
:1050E00084F84230256320680C3050E8002F00E03F
:1050F00006E022F0100240E80023002BF3D1CDE7B8
:1051000005062BD5150629D594F841002128C9D1CB
:10511000A068B0F5805F01D12069B0B1206A411C60
:105120002162216800784860E08C401E0004000C79
:10513000E084B7D12068C16821F08001C160206897
:10514000C16841F04001C160F8BD206A0088C0F329
:1051500008004860206A801C2062E5E74006F3D51D
:105160005006F1D5CA68204622F04002CA6084F891
:10517000413000F06FFBF8BD0186000870B50400F7
:1051800004D094F84100002510B106E0012070BD64
:1051900084F84050204600F023F8242084F8410091
:1051A0002068C16821F40051C160204603F0B8FABC
:1051B0002068016921F4904101612068416921F072
:1051C0002A0141612068C16841F40051C1606564F1
:1051D000202084F8410084F842006563002070BDFF
:1051E0002DE9F04786B0044614216846FBF7CDF858
:1051F0007249DFF8C4C123680024704A10390225BF
:10520000032608276E4863451FD1136843F4002323
:105210001360126802F4002205920A6842F0040248
:105220000A60096802AB01F004010591B102CDE901
:10523000001583E8D0006946FEF7FAFC002211460B
:105240003420FEF799FE342037E0DFF878C1DFF82C
:1052500078A1634536D1136843F480131360126854
:1052600002F4801205920A6842F004020A600A6899
:1052700002F0040205920A6842F008020A60096816
:1052800002AB01F0080105914FF48051CDE9001502
:1052900083E8D0006946FEF7CBFC0420CDE9000589
:1052A00002AB694683E8D0005046FEF7C1FC0022FD
:1052B00011463520FEF760FE3520FEF74FFE06B0A2
:1052C000BDE8F087DFF80481DFF8F0C04FF0070990
:1052D0000CF1040C434524D1DCF8000040F0100030
:1052E000CCF80000DCF8000000F010000590086821
:1052F00040F001000860086802AA00F00100059073
:105300004FF4C060CDE9000582E85002694630489C
:10531000FEF78EFC002211462520FEF72DFE2520EB
:10532000CBE7DFF8B080434520D1106840F400306F
:105330001060106800F400300590086840F0080024
:105340000860086802AB00F0080005906020CDE915
:10535000000583E8500269465046FEF769FC0022CA
:1053600011462620FEF708FE2620A6E71A4A934299
:10537000A5D1DCF8002042F02002CCF80020DCF8B7
:10538000002002F0200205920A6842F004020A603E
:10539000096802AA01F004010591C021CDE90015B8
:1053A00082E8D0006946FEF743FC00221146472000
:1053B000FEF7E2FD472080E7004C00404038024005
:1053C0000008024000500040000C02400010014064
:1053D00000000240004400400014014090F84230B8
:1053E000202B01D00220704721B11AB100230363A2
:1053F00003F01CBA012070472DE9F05FCC4900256D
:105400002DED028B0068CB4C884272D1001D0068E4
:1054100001265B280CD0A379C74F4FF0020B73B362
:105420002146C64A49792C2805D05D2828D029E094
:10543000A67165711EE0C24E012B02D0022B0DD069
:1054400020E05554BD4804F0B7FB51EC100BFBF7BE
:1054500042FC3060657184F806B00BE05554B748E3
:1054600004F0AAFB51EC100BFBF735FC7060657182
:105470000320A0712021B148FAF787FF0DE120E059
:10548000032B0CD01F29F9D22E2816D0A0F13003FF
:10549000092B12D92D2810D02B280ED0FDE0555401
:1054A000A64804F089FB51EC100BFBF714FCA5494E
:1054B0000860A57126703E70EFE05054491C617180
:1054C000EBE0A149412815D0A0F14102072A17D9E4
:1054D000082815DD582813D0592811D04B280FD093
:1054E00049280DD04A280BD0432809D0472807D097
:1054F00008E0D7E02279412A02D10A7802B90E7079
:105500003D700E708B4900F0FF0C84F804C0DFF88A
:105510002CA28E4ADFF83882DFF838928E4B8F4FFC
:105520008978AAF1320A4B2808D0492808D04A289D
:1055300006D01B782BB1012B0CD022E01E700DE0A1
:105540001D70A0F14103072B29D9082818DC82F827
:1055500000C01FE043280AD047280DD088F800502B
:1055600089F8005041281AD0452818D008E088F85A
:10557000005089F8006003E088F8006089F8005066
:105580001570DFED770A754A582892ED000A0AD0A7
:1055900059280BD07B2813D07D2817D00AE0A0F122
:1055A00040031370EDE730EE200A01E030EE600AB0
:1055B00087ED000A6078012803D0022808D06CE04B
:1055C00066700AF801C0491CA17066E084F801B059
:1055D0009AF803205046502A05D04278232A47D013
:1055E000E170D0462AE05F48067041E0A178081AD1
:1055F000FBF740FB41EC110B9FED5B0B04F0A0FBB4
:10560000E678B0EE408A08EB0600F0EE608A10F80B
:10561000010C3038FBF72EFB53EC182BFBF7B8FAD4
:1056200041EC180B2069FBF743FB53EC182BFBF7FD
:1056300008FAFBF750FB761E2061E670E07804283C
:10564000D4D298F801003038032811D2DFE800F0F6
:1056500002070B0094ED040A87ED000A08E094EDC0
:10566000040A434802E094ED040A424880ED000A2F
:105670006570A570E5709FED408A304884ED048A1E
:1056800032213238FAF781FE97ED000AB5EEC00AF2
:10569000F1EE10FA01D287ED008A26490122C91DD8
:1056A00036483AE03649884217D1244E60894A3656
:1056B000315C0A290AD0401C80B26081FF2800D9E1
:1056C00065816089311801222E4826E030444570FA
:1056D0001A484A3001F0D0FBF2E72B49884222D128
:1056E000A089B0F5FF7F0BD8284A217A1154401CBD
:1056F00080B2A081B0F5967F0BD9FDF7A5F808E040
:10570000A5814FF400712148FAF73FFE20A006F072
:10571000BBF80849012226480831BDEC028BBDE8E0
:10572000F05FFFF75BBEBDEC028BBDE8F09F0000B1
:10573000004400400001002018010020A60B0020BA
:10574000C402002000000020480000204900002082
:105750006C0000206D0000206E0000203C00002046
:10576000000048426F0000200000000000002440BC
:10577000400000204400002000000000300600200F
:1057800000500040A005002000140140F00C002053
:105790005BBEAFB8E65D20BDD3CAD5BBBAB3E5C723
:1057A000F8D2E7B3F6A3ACD2D1D6D8D6C30D0A004F
:1057B000780600202DE9F843044690F84100984609
:1057C00016460D46202802D00220BDE8F88385B198
:1057D0007EB100206064212084F84100FEF732FB96
:1057E000A6848146E684A0682027B0F5805F02D0B9
:1057F00003E00120E9E7206910B12E4600250EE004
:1058000000260CE08021204603F02BF8A8B9C6B191
:1058100016F8010B21684860E08C401EE084E08CA3
:105820004B464FF00002CDF800800028EAD14FF03F
:105830004001204603F015F840B184F84170032080
:10584000C3E735F8020BC0F30800E3E784F84170C2
:105850000020BAE77047FEE710B586B0142168460D
:10586000FAF793FD1148016841F0020101600068F8
:105870000F4C00F0020005904FF4406000901120A2
:105880000190012002900220039069462046FEF715
:10589000CFF9012291022046FEF7CFFA0122D10270
:1058A0002046FEF7CAFA06B010BD000030380240AC
:1058B0000004024070B50D46044600F0D7F82046BB
:1058C00000F0A4F800F01AF9284600F09FF800F064
:1058D00015F900F0CBF8641CE0B200F097F800F086
:1058E0000DF9002000F05EF8044600F0E7F82046CD
:1058F00070BD70B515460E46044600F0B7F8204658
:1059000000F084F800F0FAF8304600F07FF800F07C
:10591000F5F8284600F07AF800F0F0F800F0CEF83C
:10592000012070BD70B50D4C0025C4F8A8520C487C
:10593000016821F440010160016841F480010160C7
:10594000C4F8AC52012004F52A7405F0DFFF0120F1
:10595000206005F0DBFF256070BD00000080404244
:105960000004024070B50D4C0025C4F8A8520C4844
:10597000016821F440010160016841F48001016087
:105980000126C4F8AC62304604F52A7405F0BEFF67
:105990002660012005F0BAFF256070BD00804042FE
:1059A000000402402DE9F0478146164800240168B2
:1059B00021F44001016001680160134E254627462D
:1059C0004FF00108C6F8A872022005F09FFFC6F844
:1059D000A8826006040ED6F82C0208B1641CE4B25A
:1059E000022005F093FF6D1CEDB2082DEAD3B9F14A
:1059F000000F02D0FFF796FF01E0FFF7B3FF20464C
:105A0000BDE8F08700040240008040422DE9F041EB
:105A100006461448016821F440010160016841F420
:105A200080010160104C0027C4F8A8723D464FF079
:105A30000108F009C4F8AC027006060E012005F05A
:105A400065FFC4F8A882012005F060FFC4F8A872C1
:105A5000012005F05BFF6D1CEDB2082DE9D3BDE818
:105A6000F0810000000402400080404270B51148FF
:105A7000016821F440010160016841F48001016086
:105A80000D4C0120C4F8AC02D4F82C1249B1C4F872
:105A9000A80205F03BFF0025C4F8AC52D4F82C0254
:105AA00008B1002070BD012005F030FFC4F8A852F5
:105AB000012070BD00040240008040420D4810B536
:105AC000016821F440010160016841F48001016036
:105AD000094C0020C4F8A802C4F8AC02012004F567
